{"abi":[{"type":"constructor","inputs":[{"name":"_ics07ProgramVkey","type":"bytes32","internalType":"bytes32"},{"name":"_verifier","type":"address","internalType":"address"},{"name":"_clientState","type":"bytes","internalType":"bytes"},{"name":"_consensusState","type":"bytes32","internalType":"bytes32"}],"stateMutability":"nonpayable"},{"type":"function","name":"ALLOWED_SP1_CLOCK_DRIFT","inputs":[],"outputs":[{"name":"","type":"uint64","internalType":"uint64"}],"stateMutability":"view"},{"type":"function","name":"clientState","inputs":[],"outputs":[{"name":"chain_id","type":"string","internalType":"string"},{"name":"trust_level","type":"tuple","internalType":"struct ICS07Tendermint.TrustThreshold","components":[{"name":"numerator","type":"uint8","internalType":"uint8"},{"name":"denominator","type":"uint8","internalType":"uint8"}]},{"name":"latest_height","type":"tuple","internalType":"struct ICS07Tendermint.Height","components":[{"name":"revision_number","type":"uint32","internalType":"uint32"},{"name":"revision_height","type":"uint32","internalType":"uint32"}]},{"name":"trusting_period","type":"uint64","internalType":"uint64"},{"name":"unbonding_period","type":"uint64","internalType":"uint64"},{"name":"is_frozen","type":"bool","internalType":"bool"}],"stateMutability":"view"},{"type":"function","name":"consensusStateHashes","inputs":[{"name":"","type":"uint64","internalType":"uint64"}],"outputs":[{"name":"","type":"bytes32","internalType":"bytes32"}],"stateMutability":"view"},{"type":"function","name":"getClientState","inputs":[],"outputs":[{"name":"","type":"tuple","internalType":"struct ICS07Tendermint.ClientState","components":[{"name":"chain_id","type":"string","internalType":"string"},{"name":"trust_level","type":"tuple","internalType":"struct ICS07Tendermint.TrustThreshold","components":[{"name":"numerator","type":"uint8","internalType":"uint8"},{"name":"denominator","type":"uint8","internalType":"uint8"}]},{"name":"latest_height","type":"tuple","internalType":"struct ICS07Tendermint.Height","components":[{"name":"revision_number","type":"uint32","internalType":"uint32"},{"name":"revision_height","type":"uint32","internalType":"uint32"}]},{"name":"trusting_period","type":"uint64","internalType":"uint64"},{"name":"unbonding_period","type":"uint64","internalType":"uint64"},{"name":"is_frozen","type":"bool","internalType":"bool"}]}],"stateMutability":"view"},{"type":"function","name":"getConsensusState","inputs":[{"name":"revisionHeight","type":"uint64","internalType":"uint64"}],"outputs":[{"name":"","type":"bytes32","internalType":"bytes32"}],"stateMutability":"view"},{"type":"function","name":"ics07UpdateClientProgramVkey","inputs":[],"outputs":[{"name":"","type":"bytes32","internalType":"bytes32"}],"stateMutability":"view"},{"type":"function","name":"validatePublicValues","inputs":[{"name":"output","type":"tuple","internalType":"struct SP1ICS07Tendermint.SP1ICS07TendermintOutput","components":[{"name":"trusted_consensus_state","type":"tuple","internalType":"struct ICS07Tendermint.ConsensusState","components":[{"name":"timestamp","type":"uint64","internalType":"uint64"},{"name":"root","type":"bytes","internalType":"bytes"},{"name":"next_validators_hash","type":"bytes","internalType":"bytes"}]},{"name":"new_consensus_state","type":"tuple","internalType":"struct ICS07Tendermint.ConsensusState","components":[{"name":"timestamp","type":"uint64","internalType":"uint64"},{"name":"root","type":"bytes","internalType":"bytes"},{"name":"next_validators_hash","type":"bytes","internalType":"bytes"}]},{"name":"env","type":"tuple","internalType":"struct SP1ICS07Tendermint.Env","components":[{"name":"chain_id","type":"string","internalType":"string"},{"name":"trust_threshold","type":"tuple","internalType":"struct ICS07Tendermint.TrustThreshold","components":[{"name":"numerator","type":"uint8","internalType":"uint8"},{"name":"denominator","type":"uint8","internalType":"uint8"}]},{"name":"trusting_period","type":"uint64","internalType":"uint64"},{"name":"now","type":"uint64","internalType":"uint64"}]},{"name":"trusted_height","type":"tuple","internalType":"struct ICS07Tendermint.Height","components":[{"name":"revision_number","type":"uint32","internalType":"uint32"},{"name":"revision_height","type":"uint32","internalType":"uint32"}]},{"name":"new_height","type":"tuple","internalType":"struct ICS07Tendermint.Height","components":[{"name":"revision_number","type":"uint32","internalType":"uint32"},{"name":"revision_height","type":"uint32","internalType":"uint32"}]}]}],"outputs":[],"stateMutability":"view"},{"type":"function","name":"verifier","inputs":[],"outputs":[{"name":"","type":"address","internalType":"contract ISP1Verifier"}],"stateMutability":"view"},{"type":"function","name":"verifyIcs07UpdateClientProof","inputs":[{"name":"proof","type":"bytes","internalType":"bytes"},{"name":"publicValues","type":"bytes","internalType":"bytes"}],"outputs":[],"stateMutability":"nonpayable"}],"bytecode":{"object":"0x608060405234801561001057600080fd5b5060405161197e38038061197e83398101604081905261002f91610247565b6000849055600180546001600160a01b0319166001600160a01b0385161790558151610064906020908401810190840161038b565b8051600290819061007590826104ef565b5060208281015180516001840180549284015160ff9081166101000261ffff1990941692169190911791909117905560408084015180516002850180549285015163ffffffff9081166401000000009081026001600160401b031990951693821693909317939093179055606086015160039095018054608088015160a0909801511515600160801b0260ff60801b196001600160401b03998a1668010000000000000000026001600160801b0319909316999098169890981717959095169590951790935560045493909304909116600090815260069091522055506105ad915050565b634e487b7160e01b600052604160045260246000fd5b604080519081016001600160401b03811182821017156101925761019261015a565b60405290565b60405160c081016001600160401b03811182821017156101925761019261015a565b6000806001600160401b038411156101d4576101d461015a565b50604051601f19601f85018116603f011681018181106001600160401b03821117156102025761020261015a565b60405283815290508082840185101561021a57600080fd5b60200160005b84811015610238578381015182820152602001610220565b50600084820152509392505050565b6000806000806080858703121561025d57600080fd5b845160208601519094506001600160a01b038116811461027c57600080fd5b60408601519093506001600160401b0381111561029857600080fd5b8501601f810187136102a957600080fd5b6102b8878251602084016101ba565b606096909601519497939650505050565b805160ff811681146102da57600080fd5b919050565b6000604082840312156102f157600080fd5b6102f9610170565b9050610304826102c9565b8152610312602083016102c9565b602082015292915050565b805163ffffffff811681146102da57600080fd5b60006040828403121561034357600080fd5b61034b610170565b90506103568261031d565b81526103126020830161031d565b80516001600160401b03811681146102da57600080fd5b805180151581146102da57600080fd5b60006020828403121561039d57600080fd5b81516001600160401b038111156103b357600080fd5b820161010081850312156103c657600080fd5b6103ce610198565b81516001600160401b038111156103e457600080fd5b8201601f810186136103f557600080fd5b610404868251602084016101ba565b82525061041485602084016102df565b60208201526104268560608401610331565b604082015261043760a08301610364565b606082015261044860c08301610364565b608082015261045960e0830161037b565b60a0820152949350505050565b600181811c9082168061047a57607f821691505b60208210810361049a57634e487b7160e01b600052602260045260246000fd5b50919050565b601f8211156104ea57806000526020600020601f840160051c810160208510156104c75750805b601f840160051c820191505b818110156104e757600081556001016104d3565b50505b505050565b81516001600160401b038111156105085761050861015a565b61051c816105168454610466565b846104a0565b6020601f82116001811461055057600083156105385750848201515b600019600385901b1c1916600184901b1784556104e7565b600084815260208120601f198516915b828110156105805787850151825560209485019460019092019101610560565b508482101561059e5786840151600019600387901b60f8161c191681555b50505050600190811b01905550565b6113c2806105bc6000396000f3fe608060405234801561001057600080fd5b50600436106100935760003560e01c8063975c079611610066578063975c079614610130578063bd3ce6b014610139578063ccd65ced14610153578063edce8bdc14610166578063ef913a4b1461018f57600080fd5b80632b7ac3f3146100985780632c3ee474146100c85780633c7db584146100ed57806361d311c51461011b575b600080fd5b6001546100ab906001600160a01b031681565b6040516001600160a01b0390911681526020015b60405180910390f35b6100d5651b48eb57e00081565b6040516001600160401b0390911681526020016100bf565b61010d6100fb366004610951565b60066020526000908152604090205481565b6040519081526020016100bf565b61012e610129366004610ace565b6101a4565b005b61010d60005481565b6101416102ae565b6040516100bf96959493929190610b85565b61012e610161366004610daf565b6103b3565b61010d610174366004610951565b6001600160401b031660009081526006602052604090205490565b610197610776565b6040516100bf9190610e98565b6000818060200190518101906101ba91906110fb565b90506101c5816103b3565b60015460005460405163020a49e360e51b81526001600160a01b03909216916341493c60916101fa91869088906004016111d7565b60006040518083038186803b15801561021257600080fd5b505afa158015610226573d6000803e3d6000fd5b505050608082015180516004805460209384015163ffffffff9081166401000000000267ffffffffffffffff1990921693169290921791909117905580830151604051610276935090910161120c565b60408051601f19818403018152918152815160209283012060809093015182015163ffffffff16600090815260069092529020555050565b6002805481906102bd90611261565b80601f01602080910402602001604051908101604052809291908181526020018280546102e990611261565b80156103365780601f1061030b57610100808354040283529160200191610336565b820191906000526020600020905b81548152906001019060200180831161031957829003601f168201915b5050604080518082018252600187015460ff808216835261010090910481166020808401919091528351808501909452600289015463ffffffff80821686526401000000009091041690840152600390970154959690959194506001600160401b038083169450600160401b8304169250600160801b9091041686565b600554600160801b900460ff161561041e5760405162461bcd60e51b8152602060048201526024808201527f535031494353303754656e6465726d696e743a20636c69656e7420697320667260448201526337bd32b760e11b60648201526084015b60405180910390fd5b651b48eb57e00081604001516060015161043891906112b1565b6001600160401b031661044f42633b9aca006112d6565b11156104ab5760405162461bcd60e51b815260206004820152602560248201527f535031494353303754656e6465726d696e743a20696e76616c69642074696d6560448201526407374616d760dc1b6064820152608401610415565b6040516104ba906002906112ed565b6040518091039020816040015160000151805190602001201461052d5760405162461bcd60e51b815260206004820152602560248201527f535031494353303754656e6465726d696e743a20636861696e204944206d69736044820152640dac2e8c6d60db1b6064820152608401610415565b6003546040820151602001515160ff908116911614801561056757506003546040820151602090810151015160ff90811661010090920416145b6105c85760405162461bcd60e51b815260206004820152602c60248201527f535031494353303754656e6465726d696e743a2074727573742074687265736860448201526b0ded8c840dad2e6dac2e8c6d60a31b6064820152608401610415565b60055460408083015101516001600160401b039081169116146106425760405162461bcd60e51b815260206004820152602c60248201527f535031494353303754656e6465726d696e743a207472757374696e672070657260448201526b0d2dec840dad2e6dac2e8c6d60a31b6064820152608401610415565b60055460408083015101516001600160401b03908116600160401b90920416146106c45760405162461bcd60e51b815260206004820152602d60248201527f535031494353303754656e6465726d696e743a20756e626f6e64696e6720706560448201526c0e4d2dec840dad2e6dac2e8c6d609b1b6064820152608401610415565b80516040516106d6919060200161120c565b60408051601f198184030181529181528151602092830120606084015183015163ffffffff1660009081526006909352912054146107735760405162461bcd60e51b815260206004820152603460248201527f535031494353303754656e6465726d696e743a207472757374656420636f6e736044820152730cadce6eae640e6e8c2e8ca40dad2e6dac2e8c6d60631b6064820152608401610415565b50565b61077e6108ae565b60026040518060c001604052908160008201805461079b90611261565b80601f01602080910402602001604051908101604052809291908181526020018280546107c790611261565b80156108145780601f106107e957610100808354040283529160200191610814565b820191906000526020600020905b8154815290600101906020018083116107f757829003601f168201915b5050509183525050604080518082018252600184015460ff808216835261010090910481166020838101919091528085019290925282518084018452600286015463ffffffff80821683526401000000009091041692810192909252918301526003909201546001600160401b038082166060840152600160401b8204166080830152600160801b9004909116151560a090910152919050565b6040518060c00160405280606081526020016108e36040518060400160405280600060ff168152602001600060ff1681525090565b81526020016109116040518060400160405280600063ffffffff168152602001600063ffffffff1681525090565b81526000602082018190526040820181905260609091015290565b6001600160401b038116811461077357600080fd5b803561094c8161092c565b919050565b60006020828403121561096357600080fd5b813561096e8161092c565b9392505050565b634e487b7160e01b600052604160045260246000fd5b604051606081016001600160401b03811182821017156109ad576109ad610975565b60405290565b604051608081016001600160401b03811182821017156109ad576109ad610975565b604080519081016001600160401b03811182821017156109ad576109ad610975565b60405160a081016001600160401b03811182821017156109ad576109ad610975565b604051601f8201601f191681016001600160401b0381118282101715610a4157610a41610975565b604052919050565b60006001600160401b03821115610a6257610a62610975565b50601f01601f191660200190565b6000610a83610a7e84610a49565b610a19565b9050828152838383011115610a9757600080fd5b828260208301376000602084830101529392505050565b600082601f830112610abf57600080fd5b61096e83833560208501610a70565b60008060408385031215610ae157600080fd5b82356001600160401b03811115610af757600080fd5b610b0385828601610aae565b92505060208301356001600160401b03811115610b1f57600080fd5b610b2b85828601610aae565b9150509250929050565b60005b83811015610b50578181015183820152602001610b38565b50506000910152565b60008151808452610b71816020860160208601610b35565b601f01601f19169290920160200192915050565b61010081526000610b9a610100830189610b59565b9050610bb96020830188805160ff908116835260209182015116910152565b855163ffffffff908116606084015260208701511660808301526001600160401b03851660a08301526001600160401b03841660c083015282151560e0830152979650505050505050565b600060608284031215610c1657600080fd5b610c1e61098b565b90508135610c2b8161092c565b815260208201356001600160401b03811115610c4657600080fd5b610c5284828501610aae565b60208301525060408201356001600160401b03811115610c7157600080fd5b610c7d84828501610aae565b60408301525092915050565b60ff8116811461077357600080fd5b600081830360a0811215610cab57600080fd5b610cb36109b3565b915082356001600160401b03811115610ccb57600080fd5b8301601f81018513610cdc57600080fd5b610ceb85823560208401610a70565b8352506040601f1982011215610d0057600080fd5b50610d096109d5565b6020830135610d1781610c89565b81526040830135610d2781610c89565b602082810191909152820152610d3f60608301610941565b6040820152610d5060808301610941565b606082015292915050565b63ffffffff8116811461077357600080fd5b600060408284031215610d7f57600080fd5b610d876109d5565b90508135610d9481610d5b565b81526020820135610da481610d5b565b602082015292915050565b600060208284031215610dc157600080fd5b81356001600160401b03811115610dd757600080fd5b820160e08185031215610de957600080fd5b610df16109f7565b81356001600160401b03811115610e0757600080fd5b610e1386828501610c04565b82525060208201356001600160401b03811115610e2f57600080fd5b610e3b86828501610c04565b60208301525060408201356001600160401b03811115610e5a57600080fd5b610e6686828501610c98565b604083015250610e798560608401610d6d565b6060820152610e8b8560a08401610d6d565b6080820152949350505050565b60208152600082516101006020840152610eb6610120840182610b59565b90506020840151610eda6040850182805160ff908116835260209182015116910152565b506040840151805163ffffffff908116608086015260208201511660a0850152506001600160401b0360608501511660c08401526001600160401b0360808501511660e084015260a084015115156101008401528091505092915050565b805161094c8161092c565b6000610f51610a7e84610a49565b9050828152838383011115610f6557600080fd5b61096e836020830184610b35565b600082601f830112610f8457600080fd5b61096e83835160208501610f43565b600060608284031215610fa557600080fd5b610fad61098b565b90508151610fba8161092c565b815260208201516001600160401b03811115610fd557600080fd5b610fe184828501610f73565b60208301525060408201516001600160401b0381111561100057600080fd5b610c7d84828501610f73565b600081830360a081121561101f57600080fd5b6110276109b3565b915082516001600160401b0381111561103f57600080fd5b8301601f8101851361105057600080fd5b61105f85825160208401610f43565b8352506040601f198201121561107457600080fd5b5061107d6109d5565b602083015161108b81610c89565b8152604083015161109b81610c89565b6020828101919091528201526110b360608301610f38565b6040820152610d5060808301610f38565b6000604082840312156110d657600080fd5b6110de6109d5565b905081516110eb81610d5b565b81526020820151610da481610d5b565b60006020828403121561110d57600080fd5b81516001600160401b0381111561112357600080fd5b820160e0818503121561113557600080fd5b61113d6109f7565b81516001600160401b0381111561115357600080fd5b61115f86828501610f93565b82525060208201516001600160401b0381111561117b57600080fd5b61118786828501610f93565b60208301525060408201516001600160401b038111156111a657600080fd5b6111b28682850161100c565b6040830152506111c585606084016110c4565b6060820152610e8b8560a084016110c4565b8381526060602082015260006111f06060830185610b59565b82810360408401526112028185610b59565b9695505050505050565b602081526001600160401b038251166020820152600060208301516060604084015261123b6080840182610b59565b90506040840151601f198483030160608501526112588282610b59565b95945050505050565b600181811c9082168061127557607f821691505b60208210810361129557634e487b7160e01b600052602260045260246000fd5b50919050565b634e487b7160e01b600052601160045260246000fd5b6001600160401b0381811683821601908111156112d0576112d061129b565b92915050565b80820281158282048414176112d0576112d061129b565b6000808354818160011c9050600182168061130957607f821691505b60208210810361132757634e487b7160e01b84526022600452602484fd5b80801561133b576001811461135057611380565b60ff1984168752821515830287019450611380565b60008881526020902060005b848110156113785781548982015260019091019060200161135c565b505082870194505b5092969550505050505056fea26469706673582212206f3fdd72705e3f288ec9f9933b8b1f05b10401ba05112cf6326b1c2f1576f15364736f6c634300081a0033","linkReferences":{}},"methodIdentifiers":{"ALLOWED_SP1_CLOCK_DRIFT()":"2c3ee474","clientState()":"bd3ce6b0","consensusStateHashes(uint64)":"3c7db584","getClientState()":"ef913a4b","getConsensusState(uint64)":"edce8bdc","ics07UpdateClientProgramVkey()":"975c0796","validatePublicValues(((uint64,bytes,bytes),(uint64,bytes,bytes),(string,(uint8,uint8),uint64,uint64),(uint32,uint32),(uint32,uint32)))":"ccd65ced","verifier()":"2b7ac3f3","verifyIcs07UpdateClientProof(bytes,bytes)":"61d311c5"},"id":29}