{"abi":[{"type":"constructor","inputs":[{"name":"_ics07ProgramVkey","type":"bytes32","internalType":"bytes32"},{"name":"_verifier","type":"address","internalType":"address"},{"name":"_clientState","type":"bytes","internalType":"bytes"},{"name":"_consensusState","type":"bytes","internalType":"bytes"}],"stateMutability":"nonpayable"},{"type":"function","name":"ALLOWED_SP1_CLOCK_DRIFT","inputs":[],"outputs":[{"name":"","type":"uint64","internalType":"uint64"}],"stateMutability":"view"},{"type":"function","name":"clientState","inputs":[],"outputs":[{"name":"chain_id","type":"string","internalType":"string"},{"name":"trust_level","type":"tuple","internalType":"struct ICS07Tendermint.TrustThreshold","components":[{"name":"numerator","type":"uint64","internalType":"uint64"},{"name":"denominator","type":"uint64","internalType":"uint64"}]},{"name":"latest_height","type":"tuple","internalType":"struct ICS07Tendermint.Height","components":[{"name":"revision_number","type":"uint64","internalType":"uint64"},{"name":"revision_height","type":"uint64","internalType":"uint64"}]},{"name":"trusting_period","type":"uint64","internalType":"uint64"},{"name":"unbonding_period","type":"uint64","internalType":"uint64"},{"name":"is_frozen","type":"bool","internalType":"bool"}],"stateMutability":"view"},{"type":"function","name":"consensusStates","inputs":[{"name":"","type":"uint64","internalType":"uint64"}],"outputs":[{"name":"timestamp","type":"uint64","internalType":"uint64"},{"name":"root","type":"bytes","internalType":"bytes"},{"name":"next_validators_hash","type":"bytes","internalType":"bytes"}],"stateMutability":"view"},{"type":"function","name":"getClientState","inputs":[],"outputs":[{"name":"","type":"tuple","internalType":"struct ICS07Tendermint.ClientState","components":[{"name":"chain_id","type":"string","internalType":"string"},{"name":"trust_level","type":"tuple","internalType":"struct ICS07Tendermint.TrustThreshold","components":[{"name":"numerator","type":"uint64","internalType":"uint64"},{"name":"denominator","type":"uint64","internalType":"uint64"}]},{"name":"latest_height","type":"tuple","internalType":"struct ICS07Tendermint.Height","components":[{"name":"revision_number","type":"uint64","internalType":"uint64"},{"name":"revision_height","type":"uint64","internalType":"uint64"}]},{"name":"trusting_period","type":"uint64","internalType":"uint64"},{"name":"unbonding_period","type":"uint64","internalType":"uint64"},{"name":"is_frozen","type":"bool","internalType":"bool"}]}],"stateMutability":"view"},{"type":"function","name":"getConsensusState","inputs":[{"name":"revisionHeight","type":"uint64","internalType":"uint64"}],"outputs":[{"name":"","type":"tuple","internalType":"struct ICS07Tendermint.ConsensusState","components":[{"name":"timestamp","type":"uint64","internalType":"uint64"},{"name":"root","type":"bytes","internalType":"bytes"},{"name":"next_validators_hash","type":"bytes","internalType":"bytes"}]}],"stateMutability":"view"},{"type":"function","name":"ics07UpdateClientProgramVkey","inputs":[],"outputs":[{"name":"","type":"bytes32","internalType":"bytes32"}],"stateMutability":"view"},{"type":"function","name":"validatePublicValues","inputs":[{"name":"output","type":"tuple","internalType":"struct SP1ICS07Tendermint.SP1ICS07TendermintOutput","components":[{"name":"trusted_consensus_state","type":"tuple","internalType":"struct ICS07Tendermint.ConsensusState","components":[{"name":"timestamp","type":"uint64","internalType":"uint64"},{"name":"root","type":"bytes","internalType":"bytes"},{"name":"next_validators_hash","type":"bytes","internalType":"bytes"}]},{"name":"new_consensus_state","type":"tuple","internalType":"struct ICS07Tendermint.ConsensusState","components":[{"name":"timestamp","type":"uint64","internalType":"uint64"},{"name":"root","type":"bytes","internalType":"bytes"},{"name":"next_validators_hash","type":"bytes","internalType":"bytes"}]},{"name":"env","type":"tuple","internalType":"struct SP1ICS07Tendermint.Env","components":[{"name":"chain_id","type":"string","internalType":"string"},{"name":"trust_threshold","type":"tuple","internalType":"struct ICS07Tendermint.TrustThreshold","components":[{"name":"numerator","type":"uint64","internalType":"uint64"},{"name":"denominator","type":"uint64","internalType":"uint64"}]},{"name":"trusting_period","type":"uint64","internalType":"uint64"},{"name":"now","type":"uint64","internalType":"uint64"}]},{"name":"trusted_height","type":"tuple","internalType":"struct ICS07Tendermint.Height","components":[{"name":"revision_number","type":"uint64","internalType":"uint64"},{"name":"revision_height","type":"uint64","internalType":"uint64"}]},{"name":"new_height","type":"tuple","internalType":"struct ICS07Tendermint.Height","components":[{"name":"revision_number","type":"uint64","internalType":"uint64"},{"name":"revision_height","type":"uint64","internalType":"uint64"}]}]}],"outputs":[],"stateMutability":"view"},{"type":"function","name":"verifier","inputs":[],"outputs":[{"name":"","type":"address","internalType":"contract ISP1Verifier"}],"stateMutability":"view"},{"type":"function","name":"verifyIcs07UpdateClientProof","inputs":[{"name":"proof","type":"bytes","internalType":"bytes"},{"name":"publicValues","type":"bytes","internalType":"bytes"}],"outputs":[],"stateMutability":"nonpayable"}],"bytecode":{"object":"0x608060405234801561001057600080fd5b50604051611ecd380380611ecd83398101604081905261002f916102bd565b6000849055600180546001600160a01b0319166001600160a01b038516179055815161006490602090840181019084016103d9565b80516002908190610075908261053d565b506020828101518051600184018054928401516001600160401b039283166001600160801b031994851617680100000000000000009184168202179091556040860151805160028701805492870151918516928616929092179084168302179055606086015160039095018054608088015160a09098015196841694169390931795909116029390931760ff60801b1916600160801b9215159290920291909117909155815160009161012e91840181019084016105fb565b6004546801000000000000000090046001600160401b039081166000908152600660209081526040909120835181546001600160401b031916931692909217825582015191925082916001820190610186908261053d565b506040820151600282019061019b908261053d565b5090505050505050506106a6565b634e487b7160e01b600052604160045260246000fd5b60405160c081016001600160401b03811182821017156101e1576101e16101a9565b60405290565b604051606081016001600160401b03811182821017156101e1576101e16101a9565b6000806001600160401b03841115610223576102236101a9565b50604051601f19601f85018116603f011681018181106001600160401b0382111715610251576102516101a9565b60405283815290508082840185101561026957600080fd5b60200160005b8481101561028757838101518282015260200161026f565b50600084820152509392505050565b600082601f8301126102a757600080fd5b6102b683835160208501610209565b9392505050565b600080600080608085870312156102d357600080fd5b845160208601519094506001600160a01b03811681146102f257600080fd5b60408601519093506001600160401b0381111561030e57600080fd5b61031a87828801610296565b606087015190935090506001600160401b0381111561033857600080fd5b61034487828801610296565b91505092959194509250565b80516001600160401b038116811461036757600080fd5b919050565b60006040828403121561037e57600080fd5b604080519081016001600160401b03811182821017156103a0576103a06101a9565b6040529050806103af83610350565b81526103bd60208401610350565b60208201525092915050565b8051801515811461036757600080fd5b6000602082840312156103eb57600080fd5b81516001600160401b0381111561040157600080fd5b8201610100818503121561041457600080fd5b61041c6101bf565b81516001600160401b0381111561043257600080fd5b8201601f8101861361044357600080fd5b61045286825160208401610209565b825250610462856020840161036c565b6020820152610474856060840161036c565b604082015261048560a08301610350565b606082015261049660c08301610350565b60808201526104a760e083016103c9565b60a0820152949350505050565b600181811c908216806104c857607f821691505b6020821081036104e857634e487b7160e01b600052602260045260246000fd5b50919050565b601f82111561053857806000526020600020601f840160051c810160208510156105155750805b601f840160051c820191505b818110156105355760008155600101610521565b50505b505050565b81516001600160401b03811115610556576105566101a9565b61056a8161056484546104b4565b846104ee565b6020601f82116001811461059e57600083156105865750848201515b600019600385901b1c1916600184901b178455610535565b600084815260208120601f198516915b828110156105ce57878501518255602094850194600190920191016105ae565b50848210156105ec5786840151600019600387901b60f8161c191681555b50505050600190811b01905550565b60006020828403121561060d57600080fd5b81516001600160401b0381111561062357600080fd5b82016060818503121561063557600080fd5b61063d6101e7565b61064682610350565b815260208201516001600160401b0381111561066157600080fd5b61066d86828501610296565b60208301525060408201516001600160401b0381111561068c57600080fd5b61069886828501610296565b604083015250949350505050565b611818806106b56000396000f3fe608060405234801561001057600080fd5b50600436106100935760003560e01c8063975c079611610066578063975c079614610115578063bd3ce6b01461012c578063e08322d514610146578063edce8bdc14610168578063ef913a4b1461018857600080fd5b80632b7ac3f3146100985780632c3ee474146100c85780633f01b86f146100ed57806361d311c514610102575b600080fd5b6001546100ab906001600160a01b031681565b6040516001600160a01b0390911681526020015b60405180910390f35b6100d5651b48eb57e00081565b6040516001600160401b0390911681526020016100bf565b6101006100fb366004610f05565b61019d565b005b610100610110366004610fee565b610594565b61011e60005481565b6040519081526020016100bf565b6101346106b7565b6040516100bf969594939291906110a5565b61015961015436600461112d565b6107af565b6040516100bf9392919061114a565b61017b61017636600461112d565b6108ec565b6040516100bf9190611188565b610190610a77565b6040516100bf91906111dd565b600554600160801b900460ff16156102085760405162461bcd60e51b8152602060048201526024808201527f535031494353303754656e6465726d696e743a20636c69656e7420697320667260448201526337bd32b760e11b60648201526084015b60405180910390fd5b651b48eb57e000816040015160600151610222919061129c565b6001600160401b031661023942633b9aca006112c1565b11156102955760405162461bcd60e51b815260206004820152602560248201527f535031494353303754656e6465726d696e743a20696e76616c69642074696d6560448201526407374616d760dc1b60648201526084016101ff565b6040516102a490600290611312565b604051809103902081604001516000015180519060200120146103175760405162461bcd60e51b815260206004820152602560248201527f535031494353303754656e6465726d696e743a20636861696e204944206d69736044820152640dac2e8c6d60db1b60648201526084016101ff565b600354604082015160200151516001600160401b03908116911614801561035f5750600354604082015160209081015101516001600160401b03908116600160401b90920416145b6103c05760405162461bcd60e51b815260206004820152602c60248201527f535031494353303754656e6465726d696e743a2074727573742074687265736860448201526b0ded8c840dad2e6dac2e8c6d60a31b60648201526084016101ff565b60055460408083015101516001600160401b0390811691161461043a5760405162461bcd60e51b815260206004820152602c60248201527f535031494353303754656e6465726d696e743a207472757374696e672070657260448201526b0d2dec840dad2e6dac2e8c6d60a31b60648201526084016101ff565b60055460408083015101516001600160401b03908116600160401b90920416146104bc5760405162461bcd60e51b815260206004820152602d60248201527f535031494353303754656e6465726d696e743a20756e626f6e64696e6720706560448201526c0e4d2dec840dad2e6dac2e8c6d609b1b60648201526084016101ff565b80516040516104ce9190602001611188565b60408051601f19818403018152828252805160209182012060608501518201516001600160401b031660009081526006835292909220919261051192910161140a565b60405160208183030381529060405280519060200120146105915760405162461bcd60e51b815260206004820152603460248201527f535031494353303754656e6465726d696e743a207472757374656420636f6e736044820152730cadce6eae640e6e8c2e8ca40dad2e6dac2e8c6d60631b60648201526084016101ff565b50565b6000818060200190518101906105aa91906115e0565b90506105b58161019d565b60015460005460405163020a49e360e51b81526001600160a01b03909216916341493c60916105ea91869088906004016116bc565b60006040518083038186803b15801561060257600080fd5b505afa158015610616573d6000803e3d6000fd5b5050505060808101518051600480546020938401516001600160401b039384166fffffffffffffffffffffffffffffffff1990921691909117600160401b918416918202179091558284015160009182526006845260409091208151815467ffffffffffffffff1916931692909217825591820151600182019061069a9082611724565b50604082015160028201906106af9082611724565b505050505050565b6002805481906106c6906112d8565b80601f01602080910402602001604051908101604052809291908181526020018280546106f2906112d8565b801561073f5780601f106107145761010080835404028352916020019161073f565b820191906000526020600020905b81548152906001019060200180831161072257829003601f168201915b505060408051808201825260018701546001600160401b038082168352600160401b918290048116602080850191909152845180860190955260028a015480831686528390048216908501526003909801549697919692955082821694508204169150600160801b900460ff1686565b600660205260009081526040902080546001820180546001600160401b0390921692916107db906112d8565b80601f0160208091040260200160405190810160405280929190818152602001828054610807906112d8565b80156108545780601f1061082957610100808354040283529160200191610854565b820191906000526020600020905b81548152906001019060200180831161083757829003601f168201915b505050505090806002018054610869906112d8565b80601f0160208091040260200160405190810160405280929190818152602001828054610895906112d8565b80156108e25780601f106108b7576101008083540402835291602001916108e2565b820191906000526020600020905b8154815290600101906020018083116108c557829003601f168201915b5050505050905083565b610919604051806060016040528060006001600160401b0316815260200160608152602001606081525090565b6001600160401b03808316600090815260066020908152604091829020825160608101909352805490931682526001830180549293929184019161095c906112d8565b80601f0160208091040260200160405190810160405280929190818152602001828054610988906112d8565b80156109d55780601f106109aa576101008083540402835291602001916109d5565b820191906000526020600020905b8154815290600101906020018083116109b857829003601f168201915b505050505081526020016002820180546109ee906112d8565b80601f0160208091040260200160405190810160405280929190818152602001828054610a1a906112d8565b8015610a675780601f10610a3c57610100808354040283529160200191610a67565b820191906000526020600020905b815481529060010190602001808311610a4a57829003601f168201915b5050505050815250509050919050565b610a7f610ba6565b60026040518060c0016040529081600082018054610a9c906112d8565b80601f0160208091040260200160405190810160405280929190818152602001828054610ac8906112d8565b8015610b155780601f10610aea57610100808354040283529160200191610b15565b820191906000526020600020905b815481529060010190602001808311610af857829003601f168201915b505050918352505060408051808201825260018401546001600160401b038082168352600160401b918290048116602080850191909152808601939093528351808501855260028701548083168252839004821693810193909352928401919091526003909301548082166060840152928304166080820152600160801b90910460ff16151560a090910152919050565b6040518060c0016040528060608152602001610be7604051806040016040528060006001600160401b0316815260200160006001600160401b031681525090565b8152602001610c1b604051806040016040528060006001600160401b0316815260200160006001600160401b031681525090565b81526000602082018190526040820181905260609091015290565b634e487b7160e01b600052604160045260246000fd5b604051606081016001600160401b0381118282101715610c6e57610c6e610c36565b60405290565b604080519081016001600160401b0381118282101715610c6e57610c6e610c36565b604051608081016001600160401b0381118282101715610c6e57610c6e610c36565b60405160a081016001600160401b0381118282101715610c6e57610c6e610c36565b604051601f8201601f191681016001600160401b0381118282101715610d0257610d02610c36565b604052919050565b6001600160401b038116811461059157600080fd5b60006001600160401b03821115610d3857610d38610c36565b50601f01601f191660200190565b6000610d59610d5484610d1f565b610cda565b9050828152838383011115610d6d57600080fd5b828260208301376000602084830101529392505050565b600082601f830112610d9557600080fd5b610da483833560208501610d46565b9392505050565b600060608284031215610dbd57600080fd5b610dc5610c4c565b90508135610dd281610d0a565b815260208201356001600160401b03811115610ded57600080fd5b610df984828501610d84565b60208301525060408201356001600160401b03811115610e1857600080fd5b610e2484828501610d84565b60408301525092915050565b600060408284031215610e4257600080fd5b610e4a610c74565b90508135610e5781610d0a565b81526020820135610e6781610d0a565b602082015292915050565b600060a08284031215610e8457600080fd5b610e8c610c96565b905081356001600160401b03811115610ea457600080fd5b8201601f81018413610eb557600080fd5b610ec484823560208401610d46565b825250610ed48360208401610e30565b60208201526060820135610ee781610d0a565b60408201526080820135610efa81610d0a565b606082015292915050565b600060208284031215610f1757600080fd5b81356001600160401b03811115610f2d57600080fd5b820160e08185031215610f3f57600080fd5b610f47610cb8565b81356001600160401b03811115610f5d57600080fd5b610f6986828501610dab565b82525060208201356001600160401b03811115610f8557600080fd5b610f9186828501610dab565b60208301525060408201356001600160401b03811115610fb057600080fd5b610fbc86828501610e72565b604083015250610fcf8560608401610e30565b6060820152610fe18560a08401610e30565b6080820152949350505050565b6000806040838503121561100157600080fd5b82356001600160401b0381111561101757600080fd5b61102385828601610d84565b92505060208301356001600160401b0381111561103f57600080fd5b61104b85828601610d84565b9150509250929050565b60005b83811015611070578181015183820152602001611058565b50506000910152565b60008151808452611091816020860160208601611055565b601f01601f19169290920160200192915050565b610100815260006110ba610100830189611079565b90506110df602083018880516001600160401b03908116835260209182015116910152565b85516001600160401b03908116606084015260208701511660808301526001600160401b03851660a08301526001600160401b03841660c083015282151560e0830152979650505050505050565b60006020828403121561113f57600080fd5b8135610da481610d0a565b6001600160401b038416815260606020820152600061116c6060830185611079565b828103604084015261117e8185611079565b9695505050505050565b602081526001600160401b03825116602082015260006020830151606060408401526111b76080840182611079565b90506040840151601f198483030160608501526111d48282611079565b95945050505050565b602081526000825161010060208401526111fb610120840182611079565b90506020840151611225604085018280516001600160401b03908116835260209182015116910152565b50604084015180516001600160401b03908116608086015260208201511660a0850152506001600160401b0360608501511660c08401526001600160401b0360808501511660e084015260a084015115156101008401528091505092915050565b634e487b7160e01b600052601160045260246000fd5b6001600160401b0381811683821601908111156112bb576112bb611286565b92915050565b80820281158282048414176112bb576112bb611286565b600181811c908216806112ec57607f821691505b60208210810361130c57634e487b7160e01b600052602260045260246000fd5b50919050565b6000808354611320816112d8565b600182168015611337576001811461134c5761137c565b60ff198316865281151582028601935061137c565b86600052602060002060005b8381101561137457815488820152600190910190602001611358565b505081860193505b509195945050505050565b60008154611394816112d8565b8085526001821680156113ae57600181146113ca57611401565b60ff1983166020870152602082151560051b8701019350611401565b84600052602060002060005b838110156113f85781546020828a0101526001820191506020810190506113d6565b87016020019450505b50505092915050565b602081526001600160401b0382541660208201526060604082015260006114376080830160018501611387565b828103601f190160608401526114508160028601611387565b949350505050565b6000611466610d5484610d1f565b905082815283838301111561147a57600080fd5b610da4836020830184611055565b600082601f83011261149957600080fd5b610da483835160208501611458565b6000606082840312156114ba57600080fd5b6114c2610c4c565b905081516114cf81610d0a565b815260208201516001600160401b038111156114ea57600080fd5b6114f684828501611488565b60208301525060408201516001600160401b0381111561151557600080fd5b610e2484828501611488565b60006040828403121561153357600080fd5b61153b610c74565b9050815161154881610d0a565b81526020820151610e6781610d0a565b600060a0828403121561156a57600080fd5b611572610c96565b905081516001600160401b0381111561158a57600080fd5b8201601f8101841361159b57600080fd5b6115aa84825160208401611458565b8252506115ba8360208401611521565b602082015260608201516115cd81610d0a565b60408201526080820151610efa81610d0a565b6000602082840312156115f257600080fd5b81516001600160401b0381111561160857600080fd5b820160e0818503121561161a57600080fd5b611622610cb8565b81516001600160401b0381111561163857600080fd5b611644868285016114a8565b82525060208201516001600160401b0381111561166057600080fd5b61166c868285016114a8565b60208301525060408201516001600160401b0381111561168b57600080fd5b61169786828501611558565b6040830152506116aa8560608401611521565b6060820152610fe18560a08401611521565b83815260606020820152600061116c6060830185611079565b601f82111561171f57806000526020600020601f840160051c810160208510156116fc5750805b601f840160051c820191505b8181101561171c5760008155600101611708565b50505b505050565b81516001600160401b0381111561173d5761173d610c36565b6117518161174b84546112d8565b846116d5565b6020601f821160018114611785576000831561176d5750848201515b600019600385901b1c1916600184901b17845561171c565b600084815260208120601f198516915b828110156117b55787850151825560209485019460019092019101611795565b50848210156117d35786840151600019600387901b60f8161c191681555b50505050600190811b0190555056fea26469706673582212200237231a329df0120d02664206ad69da3d8c41250b5f79345de2d436d376746c64736f6c634300081a0033","linkReferences":{}},"methodIdentifiers":{"ALLOWED_SP1_CLOCK_DRIFT()":"2c3ee474","clientState()":"bd3ce6b0","consensusStates(uint64)":"e08322d5","getClientState()":"ef913a4b","getConsensusState(uint64)":"edce8bdc","ics07UpdateClientProgramVkey()":"975c0796","validatePublicValues(((uint64,bytes,bytes),(uint64,bytes,bytes),(string,(uint64,uint64),uint64,uint64),(uint64,uint64),(uint64,uint64)))":"3f01b86f","verifier()":"2b7ac3f3","verifyIcs07UpdateClientProof(bytes,bytes)":"61d311c5"},"id":29}