{"abi":[{"type":"constructor","inputs":[{"name":"_ics07UpdateClientProgramVkey","type":"bytes32","internalType":"bytes32"},{"name":"_ics07VerifyMembershipProgramVkey","type":"bytes32","internalType":"bytes32"},{"name":"_verifier","type":"address","internalType":"address"},{"name":"_clientState","type":"bytes","internalType":"bytes"},{"name":"_consensusState","type":"bytes32","internalType":"bytes32"}],"stateMutability":"nonpayable"},{"type":"function","name":"ALLOWED_SP1_CLOCK_DRIFT","inputs":[],"outputs":[{"name":"","type":"uint64","internalType":"uint64"}],"stateMutability":"view"},{"type":"function","name":"clientState","inputs":[],"outputs":[{"name":"chain_id","type":"string","internalType":"string"},{"name":"trust_level","type":"tuple","internalType":"struct ICS07Tendermint.TrustThreshold","components":[{"name":"numerator","type":"uint64","internalType":"uint64"},{"name":"denominator","type":"uint64","internalType":"uint64"}]},{"name":"latest_height","type":"tuple","internalType":"struct ICS07Tendermint.Height","components":[{"name":"revision_number","type":"uint64","internalType":"uint64"},{"name":"revision_height","type":"uint64","internalType":"uint64"}]},{"name":"trusting_period","type":"uint64","internalType":"uint64"},{"name":"unbonding_period","type":"uint64","internalType":"uint64"},{"name":"is_frozen","type":"bool","internalType":"bool"}],"stateMutability":"view"},{"type":"function","name":"consensusStateHashes","inputs":[{"name":"","type":"uint64","internalType":"uint64"}],"outputs":[{"name":"","type":"bytes32","internalType":"bytes32"}],"stateMutability":"view"},{"type":"function","name":"getClientState","inputs":[],"outputs":[{"name":"","type":"tuple","internalType":"struct ICS07Tendermint.ClientState","components":[{"name":"chain_id","type":"string","internalType":"string"},{"name":"trust_level","type":"tuple","internalType":"struct ICS07Tendermint.TrustThreshold","components":[{"name":"numerator","type":"uint64","internalType":"uint64"},{"name":"denominator","type":"uint64","internalType":"uint64"}]},{"name":"latest_height","type":"tuple","internalType":"struct ICS07Tendermint.Height","components":[{"name":"revision_number","type":"uint64","internalType":"uint64"},{"name":"revision_height","type":"uint64","internalType":"uint64"}]},{"name":"trusting_period","type":"uint64","internalType":"uint64"},{"name":"unbonding_period","type":"uint64","internalType":"uint64"},{"name":"is_frozen","type":"bool","internalType":"bool"}]}],"stateMutability":"view"},{"type":"function","name":"getConsensusState","inputs":[{"name":"revisionHeight","type":"uint64","internalType":"uint64"}],"outputs":[{"name":"","type":"bytes32","internalType":"bytes32"}],"stateMutability":"view"},{"type":"function","name":"ics07UpdateClientProgramVkey","inputs":[],"outputs":[{"name":"","type":"bytes32","internalType":"bytes32"}],"stateMutability":"view"},{"type":"function","name":"ics07VerifyMembershipProgramVkey","inputs":[],"outputs":[{"name":"","type":"bytes32","internalType":"bytes32"}],"stateMutability":"view"},{"type":"function","name":"validateUpdateClientPublicValues","inputs":[{"name":"output","type":"tuple","internalType":"struct SP1ICS07Tendermint.SP1ICS07UpdateClientOutput","components":[{"name":"trusted_consensus_state","type":"tuple","internalType":"struct ICS07Tendermint.ConsensusState","components":[{"name":"timestamp","type":"uint64","internalType":"uint64"},{"name":"root","type":"bytes","internalType":"bytes"},{"name":"next_validators_hash","type":"bytes","internalType":"bytes"}]},{"name":"new_consensus_state","type":"tuple","internalType":"struct ICS07Tendermint.ConsensusState","components":[{"name":"timestamp","type":"uint64","internalType":"uint64"},{"name":"root","type":"bytes","internalType":"bytes"},{"name":"next_validators_hash","type":"bytes","internalType":"bytes"}]},{"name":"env","type":"tuple","internalType":"struct SP1ICS07Tendermint.Env","components":[{"name":"chain_id","type":"string","internalType":"string"},{"name":"trust_threshold","type":"tuple","internalType":"struct ICS07Tendermint.TrustThreshold","components":[{"name":"numerator","type":"uint64","internalType":"uint64"},{"name":"denominator","type":"uint64","internalType":"uint64"}]},{"name":"trusting_period","type":"uint64","internalType":"uint64"},{"name":"now","type":"uint64","internalType":"uint64"}]},{"name":"trusted_height","type":"tuple","internalType":"struct ICS07Tendermint.Height","components":[{"name":"revision_number","type":"uint64","internalType":"uint64"},{"name":"revision_height","type":"uint64","internalType":"uint64"}]},{"name":"new_height","type":"tuple","internalType":"struct ICS07Tendermint.Height","components":[{"name":"revision_number","type":"uint64","internalType":"uint64"},{"name":"revision_height","type":"uint64","internalType":"uint64"}]}]}],"outputs":[],"stateMutability":"view"},{"type":"function","name":"verifier","inputs":[],"outputs":[{"name":"","type":"address","internalType":"contract ISP1Verifier"}],"stateMutability":"view"},{"type":"function","name":"verifyIcs07UpdateClientProof","inputs":[{"name":"proof","type":"bytes","internalType":"bytes"},{"name":"publicValues","type":"bytes","internalType":"bytes"}],"outputs":[],"stateMutability":"nonpayable"}],"bytecode":{"object":"0x60c060405234801561001057600080fd5b5060405161192e38038061192e83398101604081905261002f91610206565b608085905260a0849052600080546001600160a01b0319166001600160a01b0385161790558151610069906020908401810190840161031f565b8051600190819061007a9082610483565b506020828101518051600184018054928401516001600160401b039283166001600160801b0319948516176801000000000000000091841682021790915560408087015180516002880180549288015191861692871692909217908516840217905560608701516003968701805460808a015160a0909a015192861696169590951797841683029790971760ff60801b1916600160801b97151597909702969096179092559254049091166000908152600590915220555061054192505050565b634e487b7160e01b600052604160045260246000fd5b60405160c081016001600160401b03811182821017156101735761017361013b565b60405290565b6000806001600160401b038411156101935761019361013b565b50604051601f19601f85018116603f011681018181106001600160401b03821117156101c1576101c161013b565b6040528381529050808284018510156101d957600080fd5b60200160005b848110156101f75783810151828201526020016101df565b50600084820152509392505050565b600080600080600060a0868803121561021e57600080fd5b85516020870151604088015191965094506001600160a01b038116811461024457600080fd5b60608701519093506001600160401b0381111561026057600080fd5b8601601f8101881361027157600080fd5b61028088825160208401610179565b6080979097015195989497509295949392505050565b80516001600160401b03811681146102ad57600080fd5b919050565b6000604082840312156102c457600080fd5b604080519081016001600160401b03811182821017156102e6576102e661013b565b6040529050806102f583610296565b815261030360208401610296565b60208201525092915050565b805180151581146102ad57600080fd5b60006020828403121561033157600080fd5b81516001600160401b0381111561034757600080fd5b8201610100818503121561035a57600080fd5b610362610151565b81516001600160401b0381111561037857600080fd5b8201601f8101861361038957600080fd5b61039886825160208401610179565b8252506103a885602084016102b2565b60208201526103ba85606084016102b2565b60408201526103cb60a08301610296565b60608201526103dc60c08301610296565b60808201526103ed60e0830161030f565b60a0820152949350505050565b600181811c9082168061040e57607f821691505b60208210810361042e57634e487b7160e01b600052602260045260246000fd5b50919050565b601f82111561047e57806000526020600020601f840160051c8101602085101561045b5750805b601f840160051c820191505b8181101561047b5760008155600101610467565b50505b505050565b81516001600160401b0381111561049c5761049c61013b565b6104b0816104aa84546103fa565b84610434565b6020601f8211600181146104e457600083156104cc5750848201515b600019600385901b1c1916600184901b17845561047b565b600084815260208120601f198516915b8281101561051457878501518255602094850194600190920191016104f4565b50848210156105325786840151600019600387901b60f8161c191681555b50505050600190811b01905550565b60805160a0516113c161056d6000396000610194015260008181610153015261061101526113c16000f3fe608060405234801561001057600080fd5b506004361061009e5760003560e01c8063975c079611610066578063975c07961461014e578063bd3ce6b014610175578063c77eb6c21461018f578063edce8bdc146101b6578063ef913a4b146101df57600080fd5b80632b7ac3f3146100a35780632c3ee474146100d35780633c7db584146100f857806347800f8a1461012657806361d311c51461013b575b600080fd5b6000546100b6906001600160a01b031681565b6040516001600160a01b0390911681526020015b60405180910390f35b6100e06502ba7def300081565b6040516001600160401b0390911681526020016100ca565b6101186101063660046109ca565b60056020526000908152604090205481565b6040519081526020016100ca565b610139610134366004610ca1565b6101f4565b005b610139610149366004610d8a565b6105c8565b6101187f000000000000000000000000000000000000000000000000000000000000000081565b61017d6106fe565b6040516100ca96959493929190610e41565b6101187f000000000000000000000000000000000000000000000000000000000000000081565b6101186101c43660046109ca565b6001600160401b031660009081526005602052604090205490565b6101e76107f6565b6040516100ca9190610ec9565b600454600160801b900460ff161561025f5760405162461bcd60e51b8152602060048201526024808201527f535031494353303754656e6465726d696e743a20636c69656e7420697320667260448201526337bd32b760e11b60648201526084015b60405180910390fd5b6502ba7def30008160400151606001516102799190610f88565b6001600160401b031661029042633b9aca00610fad565b11156102ec5760405162461bcd60e51b815260206004820152602560248201527f535031494353303754656e6465726d696e743a20696e76616c69642074696d6560448201526407374616d760dc1b6064820152608401610256565b6040516102fb90600190610ffe565b6040518091039020816040015160000151805190602001201461036e5760405162461bcd60e51b815260206004820152602560248201527f535031494353303754656e6465726d696e743a20636861696e204944206d69736044820152640dac2e8c6d60db1b6064820152608401610256565b600254604082015160200151516001600160401b0390811691161480156103b65750600254604082015160209081015101516001600160401b03908116600160401b90920416145b6104175760405162461bcd60e51b815260206004820152602c60248201527f535031494353303754656e6465726d696e743a2074727573742074687265736860448201526b0ded8c840dad2e6dac2e8c6d60a31b6064820152608401610256565b60045460408083015101516001600160401b039081169116146104915760405162461bcd60e51b815260206004820152602c60248201527f535031494353303754656e6465726d696e743a207472757374696e672070657260448201526b0d2dec840dad2e6dac2e8c6d60a31b6064820152608401610256565b60045460408083015101516001600160401b03908116600160401b90920416146105135760405162461bcd60e51b815260206004820152602d60248201527f535031494353303754656e6465726d696e743a20756e626f6e64696e6720706560448201526c0e4d2dec840dad2e6dac2e8c6d609b1b6064820152608401610256565b8051604051610525919060200161109d565b60408051601f19818403018152918152815160209283012060608401518301516001600160401b031660009081526005909352912054146105c55760405162461bcd60e51b815260206004820152603460248201527f535031494353303754656e6465726d696e743a207472757374656420636f6e736044820152730cadce6eae640e6e8c2e8ca40dad2e6dac2e8c6d60631b6064820152608401610256565b50565b6000818060200190518101906105de919061127a565b90506105e9816101f4565b60005460405163020a49e360e51b81526001600160a01b03909116906341493c609061063d907f00000000000000000000000000000000000000000000000000000000000000009086908890600401611356565b60006040518083038186803b15801561065557600080fd5b505afa158015610669573d6000803e3d6000fd5b50505060808201518051600380546020938401516001600160401b03908116600160401b026fffffffffffffffffffffffffffffffff19909216931692909217919091179055808301516040516106c3935090910161109d565b60408051601f1981840301815291815281516020928301206080909301518201516001600160401b0316600090815260059092529020555050565b60018054819061070d90610fc4565b80601f016020809104026020016040519081016040528092919081815260200182805461073990610fc4565b80156107865780601f1061075b57610100808354040283529160200191610786565b820191906000526020600020905b81548152906001019060200180831161076957829003601f168201915b505060408051808201825260018701546001600160401b038082168352600160401b918290048116602080850191909152845180860190955260028a015480831686528390048216908501526003909801549697919692955082821694508204169150600160801b900460ff1686565b6107fe610925565b60016040518060c001604052908160008201805461081b90610fc4565b80601f016020809104026020016040519081016040528092919081815260200182805461084790610fc4565b80156108945780601f1061086957610100808354040283529160200191610894565b820191906000526020600020905b81548152906001019060200180831161087757829003601f168201915b505050918352505060408051808201825260018401546001600160401b038082168352600160401b918290048116602080850191909152808601939093528351808501855260028701548083168252839004821693810193909352928401919091526003909301548082166060840152928304166080820152600160801b90910460ff16151560a090910152919050565b6040518060c0016040528060608152602001610966604051806040016040528060006001600160401b0316815260200160006001600160401b031681525090565b815260200161099a604051806040016040528060006001600160401b0316815260200160006001600160401b031681525090565b81526000602082018190526040820181905260609091015290565b6001600160401b03811681146105c557600080fd5b6000602082840312156109dc57600080fd5b81356109e7816109b5565b9392505050565b634e487b7160e01b600052604160045260246000fd5b604051606081016001600160401b0381118282101715610a2657610a266109ee565b60405290565b604080519081016001600160401b0381118282101715610a2657610a266109ee565b604051608081016001600160401b0381118282101715610a2657610a266109ee565b60405160a081016001600160401b0381118282101715610a2657610a266109ee565b604051601f8201601f191681016001600160401b0381118282101715610aba57610aba6109ee565b604052919050565b60006001600160401b03821115610adb57610adb6109ee565b50601f01601f191660200190565b6000610afc610af784610ac2565b610a92565b9050828152838383011115610b1057600080fd5b828260208301376000602084830101529392505050565b600082601f830112610b3857600080fd5b6109e783833560208501610ae9565b600060608284031215610b5957600080fd5b610b61610a04565b90508135610b6e816109b5565b815260208201356001600160401b03811115610b8957600080fd5b610b9584828501610b27565b60208301525060408201356001600160401b03811115610bb457600080fd5b610bc084828501610b27565b60408301525092915050565b600060408284031215610bde57600080fd5b610be6610a2c565b90508135610bf3816109b5565b81526020820135610c03816109b5565b602082015292915050565b600060a08284031215610c2057600080fd5b610c28610a4e565b905081356001600160401b03811115610c4057600080fd5b8201601f81018413610c5157600080fd5b610c6084823560208401610ae9565b825250610c708360208401610bcc565b60208201526060820135610c83816109b5565b60408201526080820135610c96816109b5565b606082015292915050565b600060208284031215610cb357600080fd5b81356001600160401b03811115610cc957600080fd5b820160e08185031215610cdb57600080fd5b610ce3610a70565b81356001600160401b03811115610cf957600080fd5b610d0586828501610b47565b82525060208201356001600160401b03811115610d2157600080fd5b610d2d86828501610b47565b60208301525060408201356001600160401b03811115610d4c57600080fd5b610d5886828501610c0e565b604083015250610d6b8560608401610bcc565b6060820152610d7d8560a08401610bcc565b6080820152949350505050565b60008060408385031215610d9d57600080fd5b82356001600160401b03811115610db357600080fd5b610dbf85828601610b27565b92505060208301356001600160401b03811115610ddb57600080fd5b610de785828601610b27565b9150509250929050565b60005b83811015610e0c578181015183820152602001610df4565b50506000910152565b60008151808452610e2d816020860160208601610df1565b601f01601f19169290920160200192915050565b61010081526000610e56610100830189610e15565b9050610e7b602083018880516001600160401b03908116835260209182015116910152565b85516001600160401b03908116606084015260208701511660808301526001600160401b03851660a08301526001600160401b03841660c083015282151560e0830152979650505050505050565b60208152600082516101006020840152610ee7610120840182610e15565b90506020840151610f11604085018280516001600160401b03908116835260209182015116910152565b50604084015180516001600160401b03908116608086015260208201511660a0850152506001600160401b0360608501511660c08401526001600160401b0360808501511660e084015260a084015115156101008401528091505092915050565b634e487b7160e01b600052601160045260246000fd5b6001600160401b038181168382160190811115610fa757610fa7610f72565b92915050565b8082028115828204841417610fa757610fa7610f72565b600181811c90821680610fd857607f821691505b602082108103610ff857634e487b7160e01b600052602260045260246000fd5b50919050565b6000808354818160011c9050600182168061101a57607f821691505b60208210810361103857634e487b7160e01b84526022600452602484fd5b80801561104c576001811461106157611091565b60ff1984168752821515830287019450611091565b60008881526020902060005b848110156110895781548982015260019091019060200161106d565b505082870194505b50929695505050505050565b602081526001600160401b03825116602082015260006020830151606060408401526110cc6080840182610e15565b90506040840151601f198483030160608501526110e98282610e15565b95945050505050565b6000611100610af784610ac2565b905082815283838301111561111457600080fd5b6109e7836020830184610df1565b600082601f83011261113357600080fd5b6109e7838351602085016110f2565b60006060828403121561115457600080fd5b61115c610a04565b90508151611169816109b5565b815260208201516001600160401b0381111561118457600080fd5b61119084828501611122565b60208301525060408201516001600160401b038111156111af57600080fd5b610bc084828501611122565b6000604082840312156111cd57600080fd5b6111d5610a2c565b905081516111e2816109b5565b81526020820151610c03816109b5565b600060a0828403121561120457600080fd5b61120c610a4e565b905081516001600160401b0381111561122457600080fd5b8201601f8101841361123557600080fd5b611244848251602084016110f2565b82525061125483602084016111bb565b60208201526060820151611267816109b5565b60408201526080820151610c96816109b5565b60006020828403121561128c57600080fd5b81516001600160401b038111156112a257600080fd5b820160e081850312156112b457600080fd5b6112bc610a70565b81516001600160401b038111156112d257600080fd5b6112de86828501611142565b82525060208201516001600160401b038111156112fa57600080fd5b61130686828501611142565b60208301525060408201516001600160401b0381111561132557600080fd5b611331868285016111f2565b60408301525061134485606084016111bb565b6060820152610d7d8560a084016111bb565b83815260606020820152600061136f6060830185610e15565b82810360408401526113818185610e15565b969550505050505056fea26469706673582212207f52a1fa166c6631385236490fe3b730eac8b5fe884897a4358425ec7cf4296864736f6c634300081a0033","linkReferences":{}},"methodIdentifiers":{"ALLOWED_SP1_CLOCK_DRIFT()":"2c3ee474","clientState()":"bd3ce6b0","consensusStateHashes(uint64)":"3c7db584","getClientState()":"ef913a4b","getConsensusState(uint64)":"edce8bdc","ics07UpdateClientProgramVkey()":"975c0796","ics07VerifyMembershipProgramVkey()":"c77eb6c2","validateUpdateClientPublicValues(((uint64,bytes,bytes),(uint64,bytes,bytes),(string,(uint64,uint64),uint64,uint64),(uint64,uint64),(uint64,uint64)))":"47800f8a","verifier()":"2b7ac3f3","verifyIcs07UpdateClientProof(bytes,bytes)":"61d311c5"},"id":29}