{"abi":[{"type":"constructor","inputs":[{"name":"_ics07ProgramVkey","type":"bytes32","internalType":"bytes32"},{"name":"_verifier","type":"address","internalType":"address"},{"name":"_clientState","type":"bytes","internalType":"bytes"},{"name":"_consensusState","type":"bytes32","internalType":"bytes32"}],"stateMutability":"nonpayable"},{"type":"function","name":"ALLOWED_SP1_CLOCK_DRIFT","inputs":[],"outputs":[{"name":"","type":"uint64","internalType":"uint64"}],"stateMutability":"view"},{"type":"function","name":"clientState","inputs":[],"outputs":[{"name":"chain_id","type":"string","internalType":"string"},{"name":"trust_level","type":"tuple","internalType":"struct ICS07Tendermint.TrustThreshold","components":[{"name":"numerator","type":"uint8","internalType":"uint8"},{"name":"denominator","type":"uint8","internalType":"uint8"}]},{"name":"latest_height","type":"tuple","internalType":"struct ICS07Tendermint.Height","components":[{"name":"revision_number","type":"uint32","internalType":"uint32"},{"name":"revision_height","type":"uint32","internalType":"uint32"}]},{"name":"trusting_period","type":"uint64","internalType":"uint64"},{"name":"unbonding_period","type":"uint64","internalType":"uint64"},{"name":"is_frozen","type":"bool","internalType":"bool"}],"stateMutability":"view"},{"type":"function","name":"consensusStateHashes","inputs":[{"name":"","type":"uint32","internalType":"uint32"}],"outputs":[{"name":"","type":"bytes32","internalType":"bytes32"}],"stateMutability":"view"},{"type":"function","name":"getClientState","inputs":[],"outputs":[{"name":"","type":"tuple","internalType":"struct ICS07Tendermint.ClientState","components":[{"name":"chain_id","type":"string","internalType":"string"},{"name":"trust_level","type":"tuple","internalType":"struct ICS07Tendermint.TrustThreshold","components":[{"name":"numerator","type":"uint8","internalType":"uint8"},{"name":"denominator","type":"uint8","internalType":"uint8"}]},{"name":"latest_height","type":"tuple","internalType":"struct ICS07Tendermint.Height","components":[{"name":"revision_number","type":"uint32","internalType":"uint32"},{"name":"revision_height","type":"uint32","internalType":"uint32"}]},{"name":"trusting_period","type":"uint64","internalType":"uint64"},{"name":"unbonding_period","type":"uint64","internalType":"uint64"},{"name":"is_frozen","type":"bool","internalType":"bool"}]}],"stateMutability":"view"},{"type":"function","name":"getConsensusState","inputs":[{"name":"revisionHeight","type":"uint32","internalType":"uint32"}],"outputs":[{"name":"","type":"bytes32","internalType":"bytes32"}],"stateMutability":"view"},{"type":"function","name":"ics07UpdateClientProgramVkey","inputs":[],"outputs":[{"name":"","type":"bytes32","internalType":"bytes32"}],"stateMutability":"view"},{"type":"function","name":"validatePublicValues","inputs":[{"name":"output","type":"tuple","internalType":"struct SP1ICS07Tendermint.SP1ICS07TendermintOutput","components":[{"name":"trusted_consensus_state","type":"tuple","internalType":"struct ICS07Tendermint.ConsensusState","components":[{"name":"timestamp","type":"uint64","internalType":"uint64"},{"name":"root","type":"bytes","internalType":"bytes"},{"name":"next_validators_hash","type":"bytes","internalType":"bytes"}]},{"name":"new_consensus_state","type":"tuple","internalType":"struct ICS07Tendermint.ConsensusState","components":[{"name":"timestamp","type":"uint64","internalType":"uint64"},{"name":"root","type":"bytes","internalType":"bytes"},{"name":"next_validators_hash","type":"bytes","internalType":"bytes"}]},{"name":"env","type":"tuple","internalType":"struct SP1ICS07Tendermint.Env","components":[{"name":"chain_id","type":"string","internalType":"string"},{"name":"trust_threshold","type":"tuple","internalType":"struct ICS07Tendermint.TrustThreshold","components":[{"name":"numerator","type":"uint8","internalType":"uint8"},{"name":"denominator","type":"uint8","internalType":"uint8"}]},{"name":"trusting_period","type":"uint64","internalType":"uint64"},{"name":"now","type":"uint64","internalType":"uint64"}]},{"name":"trusted_height","type":"tuple","internalType":"struct ICS07Tendermint.Height","components":[{"name":"revision_number","type":"uint32","internalType":"uint32"},{"name":"revision_height","type":"uint32","internalType":"uint32"}]},{"name":"new_height","type":"tuple","internalType":"struct ICS07Tendermint.Height","components":[{"name":"revision_number","type":"uint32","internalType":"uint32"},{"name":"revision_height","type":"uint32","internalType":"uint32"}]}]}],"outputs":[],"stateMutability":"view"},{"type":"function","name":"verifier","inputs":[],"outputs":[{"name":"","type":"address","internalType":"contract ISP1Verifier"}],"stateMutability":"view"},{"type":"function","name":"verifyIcs07UpdateClientProof","inputs":[{"name":"proof","type":"bytes","internalType":"bytes"},{"name":"publicValues","type":"bytes","internalType":"bytes"}],"outputs":[],"stateMutability":"nonpayable"}],"bytecode":{"object":"0x608060405234801561001057600080fd5b5060405161197b38038061197b83398101604081905261002f91610247565b6000849055600180546001600160a01b0319166001600160a01b0385161790558151610064906020908401810190840161038b565b8051600290819061007590826104ef565b5060208281015180516001840180549284015160ff9081166101000261ffff1990941692169190911791909117905560408084015180516002850180549285015163ffffffff9081166401000000009081026001600160401b031990951693821693909317939093179055606086015160039095018054608088015160a0909801511515600160801b0260ff60801b196001600160401b03998a1668010000000000000000026001600160801b0319909316999098169890981717959095169590951790935560045493909304909116600090815260069091522055506105ad915050565b634e487b7160e01b600052604160045260246000fd5b604080519081016001600160401b03811182821017156101925761019261015a565b60405290565b60405160c081016001600160401b03811182821017156101925761019261015a565b6000806001600160401b038411156101d4576101d461015a565b50604051601f19601f85018116603f011681018181106001600160401b03821117156102025761020261015a565b60405283815290508082840185101561021a57600080fd5b60200160005b84811015610238578381015182820152602001610220565b50600084820152509392505050565b6000806000806080858703121561025d57600080fd5b845160208601519094506001600160a01b038116811461027c57600080fd5b60408601519093506001600160401b0381111561029857600080fd5b8501601f810187136102a957600080fd5b6102b8878251602084016101ba565b606096909601519497939650505050565b805160ff811681146102da57600080fd5b919050565b6000604082840312156102f157600080fd5b6102f9610170565b9050610304826102c9565b8152610312602083016102c9565b602082015292915050565b805163ffffffff811681146102da57600080fd5b60006040828403121561034357600080fd5b61034b610170565b90506103568261031d565b81526103126020830161031d565b80516001600160401b03811681146102da57600080fd5b805180151581146102da57600080fd5b60006020828403121561039d57600080fd5b81516001600160401b038111156103b357600080fd5b820161010081850312156103c657600080fd5b6103ce610198565b81516001600160401b038111156103e457600080fd5b8201601f810186136103f557600080fd5b610404868251602084016101ba565b82525061041485602084016102df565b60208201526104268560608401610331565b604082015261043760a08301610364565b606082015261044860c08301610364565b608082015261045960e0830161037b565b60a0820152949350505050565b600181811c9082168061047a57607f821691505b60208210810361049a57634e487b7160e01b600052602260045260246000fd5b50919050565b601f8211156104ea57806000526020600020601f840160051c810160208510156104c75750805b601f840160051c820191505b818110156104e757600081556001016104d3565b50505b505050565b81516001600160401b038111156105085761050861015a565b61051c816105168454610466565b846104a0565b6020601f82116001811461055057600083156105385750848201515b600019600385901b1c1916600184901b1784556104e7565b600084815260208120601f198516915b828110156105805787850151825560209485019460019092019101610560565b508482101561059e5786840151600019600387901b60f8161c191681555b50505050600190811b01905550565b6113bf806105bc6000396000f3fe608060405234801561001057600080fd5b50600436106100935760003560e01c8063975c079611610066578063975c079614610130578063bd3ce6b014610139578063ccd65ced14610153578063ee3d9e5e14610166578063ef913a4b1461018c57600080fd5b80632b7ac3f3146100985780632c3ee474146100c857806361d311c5146100ed5780637733c36c14610102575b600080fd5b6001546100ab906001600160a01b031681565b6040516001600160a01b0390911681526020015b60405180910390f35b6100d5651b48eb57e00081565b6040516001600160401b0390911681526020016100bf565b6101006100fb366004610a89565b6101a1565b005b610122610110366004610b02565b60066020526000908152604090205481565b6040519081526020016100bf565b61012260005481565b6101416102ab565b6040516100bf96959493929190610b6f565b610100610161366004610dac565b6103b0565b610122610174366004610b02565b63ffffffff1660009081526006602052604090205490565b610194610773565b6040516100bf9190610e95565b6000818060200190518101906101b791906110f8565b90506101c2816103b0565b60015460005460405163020a49e360e51b81526001600160a01b03909216916341493c60916101f791869088906004016111d4565b60006040518083038186803b15801561020f57600080fd5b505afa158015610223573d6000803e3d6000fd5b505050608082015180516004805460209384015163ffffffff9081166401000000000267ffffffffffffffff19909216931692909217919091179055808301516040516102739350909101611209565b60408051601f19818403018152918152815160209283012060809093015182015163ffffffff16600090815260069092529020555050565b6002805481906102ba9061125e565b80601f01602080910402602001604051908101604052809291908181526020018280546102e69061125e565b80156103335780601f1061030857610100808354040283529160200191610333565b820191906000526020600020905b81548152906001019060200180831161031657829003601f168201915b5050604080518082018252600187015460ff808216835261010090910481166020808401919091528351808501909452600289015463ffffffff80821686526401000000009091041690840152600390970154959690959194506001600160401b038083169450600160401b8304169250600160801b9091041686565b600554600160801b900460ff161561041b5760405162461bcd60e51b8152602060048201526024808201527f535031494353303754656e6465726d696e743a20636c69656e7420697320667260448201526337bd32b760e11b60648201526084015b60405180910390fd5b651b48eb57e00081604001516060015161043591906112ae565b6001600160401b031661044c42633b9aca006112d3565b11156104a85760405162461bcd60e51b815260206004820152602560248201527f535031494353303754656e6465726d696e743a20696e76616c69642074696d6560448201526407374616d760dc1b6064820152608401610412565b6040516104b7906002906112ea565b6040518091039020816040015160000151805190602001201461052a5760405162461bcd60e51b815260206004820152602560248201527f535031494353303754656e6465726d696e743a20636861696e204944206d69736044820152640dac2e8c6d60db1b6064820152608401610412565b6003546040820151602001515160ff908116911614801561056457506003546040820151602090810151015160ff90811661010090920416145b6105c55760405162461bcd60e51b815260206004820152602c60248201527f535031494353303754656e6465726d696e743a2074727573742074687265736860448201526b0ded8c840dad2e6dac2e8c6d60a31b6064820152608401610412565b60055460408083015101516001600160401b0390811691161461063f5760405162461bcd60e51b815260206004820152602c60248201527f535031494353303754656e6465726d696e743a207472757374696e672070657260448201526b0d2dec840dad2e6dac2e8c6d60a31b6064820152608401610412565b60055460408083015101516001600160401b03908116600160401b90920416146106c15760405162461bcd60e51b815260206004820152602d60248201527f535031494353303754656e6465726d696e743a20756e626f6e64696e6720706560448201526c0e4d2dec840dad2e6dac2e8c6d609b1b6064820152608401610412565b80516040516106d39190602001611209565b60408051601f198184030181529181528151602092830120606084015183015163ffffffff1660009081526006909352912054146107705760405162461bcd60e51b815260206004820152603460248201527f535031494353303754656e6465726d696e743a207472757374656420636f6e736044820152730cadce6eae640e6e8c2e8ca40dad2e6dac2e8c6d60631b6064820152608401610412565b50565b61077b6108ab565b60026040518060c00160405290816000820180546107989061125e565b80601f01602080910402602001604051908101604052809291908181526020018280546107c49061125e565b80156108115780601f106107e657610100808354040283529160200191610811565b820191906000526020600020905b8154815290600101906020018083116107f457829003601f168201915b5050509183525050604080518082018252600184015460ff808216835261010090910481166020838101919091528085019290925282518084018452600286015463ffffffff80821683526401000000009091041692810192909252918301526003909201546001600160401b038082166060840152600160401b8204166080830152600160801b9004909116151560a090910152919050565b6040518060c00160405280606081526020016108e06040518060400160405280600060ff168152602001600060ff1681525090565b815260200161090e6040518060400160405280600063ffffffff168152602001600063ffffffff1681525090565b81526000602082018190526040820181905260609091015290565b634e487b7160e01b600052604160045260246000fd5b604051606081016001600160401b038111828210171561096157610961610929565b60405290565b604051608081016001600160401b038111828210171561096157610961610929565b604080519081016001600160401b038111828210171561096157610961610929565b60405160a081016001600160401b038111828210171561096157610961610929565b604051601f8201601f191681016001600160401b03811182821017156109f5576109f5610929565b604052919050565b60006001600160401b03821115610a1657610a16610929565b50601f01601f191660200190565b6000610a37610a32846109fd565b6109cd565b9050828152838383011115610a4b57600080fd5b828260208301376000602084830101529392505050565b600082601f830112610a7357600080fd5b610a8283833560208501610a24565b9392505050565b60008060408385031215610a9c57600080fd5b82356001600160401b03811115610ab257600080fd5b610abe85828601610a62565b92505060208301356001600160401b03811115610ada57600080fd5b610ae685828601610a62565b9150509250929050565b63ffffffff8116811461077057600080fd5b600060208284031215610b1457600080fd5b8135610a8281610af0565b60005b83811015610b3a578181015183820152602001610b22565b50506000910152565b60008151808452610b5b816020860160208601610b1f565b601f01601f19169290920160200192915050565b61010081526000610b84610100830189610b43565b9050610ba36020830188805160ff908116835260209182015116910152565b855163ffffffff908116606084015260208701511660808301526001600160401b03851660a08301526001600160401b03841660c083015282151560e0830152979650505050505050565b6001600160401b038116811461077057600080fd5b8035610c0e81610bee565b919050565b600060608284031215610c2557600080fd5b610c2d61093f565b90508135610c3a81610bee565b815260208201356001600160401b03811115610c5557600080fd5b610c6184828501610a62565b60208301525060408201356001600160401b03811115610c8057600080fd5b610c8c84828501610a62565b60408301525092915050565b60ff8116811461077057600080fd5b600081830360a0811215610cba57600080fd5b610cc2610967565b915082356001600160401b03811115610cda57600080fd5b8301601f81018513610ceb57600080fd5b610cfa85823560208401610a24565b8352506040601f1982011215610d0f57600080fd5b50610d18610989565b6020830135610d2681610c98565b81526040830135610d3681610c98565b602082810191909152820152610d4e60608301610c03565b6040820152610d5f60808301610c03565b606082015292915050565b600060408284031215610d7c57600080fd5b610d84610989565b90508135610d9181610af0565b81526020820135610da181610af0565b602082015292915050565b600060208284031215610dbe57600080fd5b81356001600160401b03811115610dd457600080fd5b820160e08185031215610de657600080fd5b610dee6109ab565b81356001600160401b03811115610e0457600080fd5b610e1086828501610c13565b82525060208201356001600160401b03811115610e2c57600080fd5b610e3886828501610c13565b60208301525060408201356001600160401b03811115610e5757600080fd5b610e6386828501610ca7565b604083015250610e768560608401610d6a565b6060820152610e888560a08401610d6a565b6080820152949350505050565b60208152600082516101006020840152610eb3610120840182610b43565b90506020840151610ed76040850182805160ff908116835260209182015116910152565b506040840151805163ffffffff908116608086015260208201511660a0850152506001600160401b0360608501511660c08401526001600160401b0360808501511660e084015260a084015115156101008401528091505092915050565b8051610c0e81610bee565b6000610f4e610a32846109fd565b9050828152838383011115610f6257600080fd5b610a82836020830184610b1f565b600082601f830112610f8157600080fd5b610a8283835160208501610f40565b600060608284031215610fa257600080fd5b610faa61093f565b90508151610fb781610bee565b815260208201516001600160401b03811115610fd257600080fd5b610fde84828501610f70565b60208301525060408201516001600160401b03811115610ffd57600080fd5b610c8c84828501610f70565b600081830360a081121561101c57600080fd5b611024610967565b915082516001600160401b0381111561103c57600080fd5b8301601f8101851361104d57600080fd5b61105c85825160208401610f40565b8352506040601f198201121561107157600080fd5b5061107a610989565b602083015161108881610c98565b8152604083015161109881610c98565b6020828101919091528201526110b060608301610f35565b6040820152610d5f60808301610f35565b6000604082840312156110d357600080fd5b6110db610989565b905081516110e881610af0565b81526020820151610da181610af0565b60006020828403121561110a57600080fd5b81516001600160401b0381111561112057600080fd5b820160e0818503121561113257600080fd5b61113a6109ab565b81516001600160401b0381111561115057600080fd5b61115c86828501610f90565b82525060208201516001600160401b0381111561117857600080fd5b61118486828501610f90565b60208301525060408201516001600160401b038111156111a357600080fd5b6111af86828501611009565b6040830152506111c285606084016110c1565b6060820152610e888560a084016110c1565b8381526060602082015260006111ed6060830185610b43565b82810360408401526111ff8185610b43565b9695505050505050565b602081526001600160401b03825116602082015260006020830151606060408401526112386080840182610b43565b90506040840151601f198483030160608501526112558282610b43565b95945050505050565b600181811c9082168061127257607f821691505b60208210810361129257634e487b7160e01b600052602260045260246000fd5b50919050565b634e487b7160e01b600052601160045260246000fd5b6001600160401b0381811683821601908111156112cd576112cd611298565b92915050565b80820281158282048414176112cd576112cd611298565b6000808354818160011c9050600182168061130657607f821691505b60208210810361132457634e487b7160e01b84526022600452602484fd5b808015611338576001811461134d5761137d565b60ff198416875282151583028701945061137d565b60008881526020902060005b8481101561137557815489820152600190910190602001611359565b505082870194505b5092969550505050505056fea26469706673582212206e9c7fb2902a1a55221ac3868899cc6cd971ef55377ef051b8939f2343e5dafb64736f6c634300081a0033","linkReferences":{}},"methodIdentifiers":{"ALLOWED_SP1_CLOCK_DRIFT()":"2c3ee474","clientState()":"bd3ce6b0","consensusStateHashes(uint32)":"7733c36c","getClientState()":"ef913a4b","getConsensusState(uint32)":"ee3d9e5e","ics07UpdateClientProgramVkey()":"975c0796","validatePublicValues(((uint64,bytes,bytes),(uint64,bytes,bytes),(string,(uint8,uint8),uint64,uint64),(uint32,uint32),(uint32,uint32)))":"ccd65ced","verifier()":"2b7ac3f3","verifyIcs07UpdateClientProof(bytes,bytes)":"61d311c5"},"id":27}