{"abi":[{"type":"constructor","inputs":[{"name":"_ics07ProgramVkey","type":"bytes32","internalType":"bytes32"},{"name":"_verifier","type":"address","internalType":"address"},{"name":"_clientState","type":"bytes","internalType":"bytes"},{"name":"_consensusState","type":"bytes32","internalType":"bytes32"}],"stateMutability":"nonpayable"},{"type":"function","name":"ALLOWED_SP1_CLOCK_DRIFT","inputs":[],"outputs":[{"name":"","type":"uint64","internalType":"uint64"}],"stateMutability":"view"},{"type":"function","name":"clientState","inputs":[],"outputs":[{"name":"chain_id","type":"string","internalType":"string"},{"name":"trust_level","type":"tuple","internalType":"struct ICS07Tendermint.TrustThreshold","components":[{"name":"numerator","type":"uint64","internalType":"uint64"},{"name":"denominator","type":"uint64","internalType":"uint64"}]},{"name":"latest_height","type":"tuple","internalType":"struct ICS07Tendermint.Height","components":[{"name":"revision_number","type":"uint64","internalType":"uint64"},{"name":"revision_height","type":"uint64","internalType":"uint64"}]},{"name":"trusting_period","type":"uint64","internalType":"uint64"},{"name":"unbonding_period","type":"uint64","internalType":"uint64"},{"name":"is_frozen","type":"bool","internalType":"bool"}],"stateMutability":"view"},{"type":"function","name":"consensusStates","inputs":[{"name":"","type":"uint64","internalType":"uint64"}],"outputs":[{"name":"","type":"bytes32","internalType":"bytes32"}],"stateMutability":"view"},{"type":"function","name":"getClientState","inputs":[],"outputs":[{"name":"","type":"tuple","internalType":"struct ICS07Tendermint.ClientState","components":[{"name":"chain_id","type":"string","internalType":"string"},{"name":"trust_level","type":"tuple","internalType":"struct ICS07Tendermint.TrustThreshold","components":[{"name":"numerator","type":"uint64","internalType":"uint64"},{"name":"denominator","type":"uint64","internalType":"uint64"}]},{"name":"latest_height","type":"tuple","internalType":"struct ICS07Tendermint.Height","components":[{"name":"revision_number","type":"uint64","internalType":"uint64"},{"name":"revision_height","type":"uint64","internalType":"uint64"}]},{"name":"trusting_period","type":"uint64","internalType":"uint64"},{"name":"unbonding_period","type":"uint64","internalType":"uint64"},{"name":"is_frozen","type":"bool","internalType":"bool"}]}],"stateMutability":"view"},{"type":"function","name":"getConsensusState","inputs":[{"name":"revisionHeight","type":"uint64","internalType":"uint64"}],"outputs":[{"name":"","type":"bytes32","internalType":"bytes32"}],"stateMutability":"view"},{"type":"function","name":"ics07UpdateClientProgramVkey","inputs":[],"outputs":[{"name":"","type":"bytes32","internalType":"bytes32"}],"stateMutability":"view"},{"type":"function","name":"validatePublicValues","inputs":[{"name":"output","type":"tuple","internalType":"struct SP1ICS07Tendermint.SP1ICS07TendermintOutput","components":[{"name":"trusted_consensus_state","type":"tuple","internalType":"struct ICS07Tendermint.ConsensusState","components":[{"name":"timestamp","type":"uint64","internalType":"uint64"},{"name":"root","type":"bytes","internalType":"bytes"},{"name":"next_validators_hash","type":"bytes","internalType":"bytes"}]},{"name":"new_consensus_state","type":"tuple","internalType":"struct ICS07Tendermint.ConsensusState","components":[{"name":"timestamp","type":"uint64","internalType":"uint64"},{"name":"root","type":"bytes","internalType":"bytes"},{"name":"next_validators_hash","type":"bytes","internalType":"bytes"}]},{"name":"env","type":"tuple","internalType":"struct SP1ICS07Tendermint.Env","components":[{"name":"chain_id","type":"string","internalType":"string"},{"name":"trust_threshold","type":"tuple","internalType":"struct ICS07Tendermint.TrustThreshold","components":[{"name":"numerator","type":"uint64","internalType":"uint64"},{"name":"denominator","type":"uint64","internalType":"uint64"}]},{"name":"trusting_period","type":"uint64","internalType":"uint64"},{"name":"now","type":"uint64","internalType":"uint64"}]},{"name":"trusted_height","type":"tuple","internalType":"struct ICS07Tendermint.Height","components":[{"name":"revision_number","type":"uint64","internalType":"uint64"},{"name":"revision_height","type":"uint64","internalType":"uint64"}]},{"name":"new_height","type":"tuple","internalType":"struct ICS07Tendermint.Height","components":[{"name":"revision_number","type":"uint64","internalType":"uint64"},{"name":"revision_height","type":"uint64","internalType":"uint64"}]}]}],"outputs":[],"stateMutability":"view"},{"type":"function","name":"verifier","inputs":[],"outputs":[{"name":"","type":"address","internalType":"contract ISP1Verifier"}],"stateMutability":"view"},{"type":"function","name":"verifyIcs07UpdateClientProof","inputs":[{"name":"proof","type":"bytes","internalType":"bytes"},{"name":"publicValues","type":"bytes","internalType":"bytes"}],"outputs":[],"stateMutability":"nonpayable"}],"bytecode":{"object":"0x608060405234801561001057600080fd5b5060405161189238038061189283398101604081905261002f91610204565b6000849055600180546001600160a01b0319166001600160a01b0385161790558151610064906020908401810190840161030f565b805160029081906100759082610473565b506020828101518051600184018054928401516001600160401b039283166001600160801b03199485161768010000000000000000918416820217909155604080870151805160028801805492880151918616928716929092179085168402179055606087015160039096018054608089015160a09099015197851695169490941796831682029690961760ff60801b1916600160801b95151595909502949094179091556004549290920490911660009081526006909152205550610531915050565b634e487b7160e01b600052604160045260246000fd5b60405160c081016001600160401b038111828210171561017157610171610139565b60405290565b6000806001600160401b0384111561019157610191610139565b50604051601f19601f85018116603f011681018181106001600160401b03821117156101bf576101bf610139565b6040528381529050808284018510156101d757600080fd5b60200160005b848110156101f55783810151828201526020016101dd565b50600084820152509392505050565b6000806000806080858703121561021a57600080fd5b845160208601519094506001600160a01b038116811461023957600080fd5b60408601519093506001600160401b0381111561025557600080fd5b8501601f8101871361026657600080fd5b61027587825160208401610177565b606096909601519497939650505050565b80516001600160401b038116811461029d57600080fd5b919050565b6000604082840312156102b457600080fd5b604080519081016001600160401b03811182821017156102d6576102d6610139565b6040529050806102e583610286565b81526102f360208401610286565b60208201525092915050565b8051801515811461029d57600080fd5b60006020828403121561032157600080fd5b81516001600160401b0381111561033757600080fd5b8201610100818503121561034a57600080fd5b61035261014f565b81516001600160401b0381111561036857600080fd5b8201601f8101861361037957600080fd5b61038886825160208401610177565b82525061039885602084016102a2565b60208201526103aa85606084016102a2565b60408201526103bb60a08301610286565b60608201526103cc60c08301610286565b60808201526103dd60e083016102ff565b60a0820152949350505050565b600181811c908216806103fe57607f821691505b60208210810361041e57634e487b7160e01b600052602260045260246000fd5b50919050565b601f82111561046e57806000526020600020601f840160051c8101602085101561044b5750805b601f840160051c820191505b8181101561046b5760008155600101610457565b50505b505050565b81516001600160401b0381111561048c5761048c610139565b6104a08161049a84546103ea565b84610424565b6020601f8211600181146104d457600083156104bc5750848201515b600019600385901b1c1916600184901b17845561046b565b600084815260208120601f198516915b8281101561050457878501518255602094850194600190920191016104e4565b50848210156105225786840151600019600387901b60f8161c191681555b50505050600190811b01905550565b611352806105406000396000f3fe608060405234801561001057600080fd5b50600436106100935760003560e01c8063975c079611610066578063975c079614610115578063bd3ce6b01461012c578063e08322d514610146578063edce8bdc14610166578063ef913a4b1461018f57600080fd5b80632b7ac3f3146100985780632c3ee474146100c85780633f01b86f146100ed57806361d311c514610102575b600080fd5b6001546100ab906001600160a01b031681565b6040516001600160a01b0390911681526020015b60405180910390f35b6100d5651b48eb57e00081565b6040516001600160401b0390911681526020016100bf565b6101006100fb366004610c15565b6101a4565b005b610100610110366004610cfe565b610578565b61011e60005481565b6040519081526020016100bf565b61013461068f565b6040516100bf96959493929190610db5565b61011e610154366004610e3d565b60066020526000908152604090205481565b61011e610174366004610e3d565b6001600160401b031660009081526006602052604090205490565b610197610787565b6040516100bf9190610e5a565b600554600160801b900460ff161561020f5760405162461bcd60e51b8152602060048201526024808201527f535031494353303754656e6465726d696e743a20636c69656e7420697320667260448201526337bd32b760e11b60648201526084015b60405180910390fd5b651b48eb57e0008160400151606001516102299190610f19565b6001600160401b031661024042633b9aca00610f3e565b111561029c5760405162461bcd60e51b815260206004820152602560248201527f535031494353303754656e6465726d696e743a20696e76616c69642074696d6560448201526407374616d760dc1b6064820152608401610206565b6040516102ab90600290610f8f565b6040518091039020816040015160000151805190602001201461031e5760405162461bcd60e51b815260206004820152602560248201527f535031494353303754656e6465726d696e743a20636861696e204944206d69736044820152640dac2e8c6d60db1b6064820152608401610206565b600354604082015160200151516001600160401b0390811691161480156103665750600354604082015160209081015101516001600160401b03908116600160401b90920416145b6103c75760405162461bcd60e51b815260206004820152602c60248201527f535031494353303754656e6465726d696e743a2074727573742074687265736860448201526b0ded8c840dad2e6dac2e8c6d60a31b6064820152608401610206565b60055460408083015101516001600160401b039081169116146104415760405162461bcd60e51b815260206004820152602c60248201527f535031494353303754656e6465726d696e743a207472757374696e672070657260448201526b0d2dec840dad2e6dac2e8c6d60a31b6064820152608401610206565b60055460408083015101516001600160401b03908116600160401b90920416146104c35760405162461bcd60e51b815260206004820152602d60248201527f535031494353303754656e6465726d696e743a20756e626f6e64696e6720706560448201526c0e4d2dec840dad2e6dac2e8c6d609b1b6064820152608401610206565b80516040516104d5919060200161102e565b60408051601f19818403018152918152815160209283012060608401518301516001600160401b031660009081526006909352912054146105755760405162461bcd60e51b815260206004820152603460248201527f535031494353303754656e6465726d696e743a207472757374656420636f6e736044820152730cadce6eae640e6e8c2e8ca40dad2e6dac2e8c6d60631b6064820152608401610206565b50565b60008180602001905181019061058e919061120b565b9050610599816101a4565b60015460005460405163020a49e360e51b81526001600160a01b03909216916341493c60916105ce91869088906004016112e7565b60006040518083038186803b1580156105e657600080fd5b505afa1580156105fa573d6000803e3d6000fd5b50505060808201518051600480546020938401516001600160401b03908116600160401b026fffffffffffffffffffffffffffffffff1990921693169290921791909117905580830151604051610654935090910161102e565b60408051601f1981840301815291815281516020928301206080909301518201516001600160401b0316600090815260069092529020555050565b60028054819061069e90610f55565b80601f01602080910402602001604051908101604052809291908181526020018280546106ca90610f55565b80156107175780601f106106ec57610100808354040283529160200191610717565b820191906000526020600020905b8154815290600101906020018083116106fa57829003601f168201915b505060408051808201825260018701546001600160401b038082168352600160401b918290048116602080850191909152845180860190955260028a015480831686528390048216908501526003909801549697919692955082821694508204169150600160801b900460ff1686565b61078f6108b6565b60026040518060c00160405290816000820180546107ac90610f55565b80601f01602080910402602001604051908101604052809291908181526020018280546107d890610f55565b80156108255780601f106107fa57610100808354040283529160200191610825565b820191906000526020600020905b81548152906001019060200180831161080857829003601f168201915b505050918352505060408051808201825260018401546001600160401b038082168352600160401b918290048116602080850191909152808601939093528351808501855260028701548083168252839004821693810193909352928401919091526003909301548082166060840152928304166080820152600160801b90910460ff16151560a090910152919050565b6040518060c00160405280606081526020016108f7604051806040016040528060006001600160401b0316815260200160006001600160401b031681525090565b815260200161092b604051806040016040528060006001600160401b0316815260200160006001600160401b031681525090565b81526000602082018190526040820181905260609091015290565b634e487b7160e01b600052604160045260246000fd5b604051606081016001600160401b038111828210171561097e5761097e610946565b60405290565b604080519081016001600160401b038111828210171561097e5761097e610946565b604051608081016001600160401b038111828210171561097e5761097e610946565b60405160a081016001600160401b038111828210171561097e5761097e610946565b604051601f8201601f191681016001600160401b0381118282101715610a1257610a12610946565b604052919050565b6001600160401b038116811461057557600080fd5b60006001600160401b03821115610a4857610a48610946565b50601f01601f191660200190565b6000610a69610a6484610a2f565b6109ea565b9050828152838383011115610a7d57600080fd5b828260208301376000602084830101529392505050565b600082601f830112610aa557600080fd5b610ab483833560208501610a56565b9392505050565b600060608284031215610acd57600080fd5b610ad561095c565b90508135610ae281610a1a565b815260208201356001600160401b03811115610afd57600080fd5b610b0984828501610a94565b60208301525060408201356001600160401b03811115610b2857600080fd5b610b3484828501610a94565b60408301525092915050565b600060408284031215610b5257600080fd5b610b5a610984565b90508135610b6781610a1a565b81526020820135610b7781610a1a565b602082015292915050565b600060a08284031215610b9457600080fd5b610b9c6109a6565b905081356001600160401b03811115610bb457600080fd5b8201601f81018413610bc557600080fd5b610bd484823560208401610a56565b825250610be48360208401610b40565b60208201526060820135610bf781610a1a565b60408201526080820135610c0a81610a1a565b606082015292915050565b600060208284031215610c2757600080fd5b81356001600160401b03811115610c3d57600080fd5b820160e08185031215610c4f57600080fd5b610c576109c8565b81356001600160401b03811115610c6d57600080fd5b610c7986828501610abb565b82525060208201356001600160401b03811115610c9557600080fd5b610ca186828501610abb565b60208301525060408201356001600160401b03811115610cc057600080fd5b610ccc86828501610b82565b604083015250610cdf8560608401610b40565b6060820152610cf18560a08401610b40565b6080820152949350505050565b60008060408385031215610d1157600080fd5b82356001600160401b03811115610d2757600080fd5b610d3385828601610a94565b92505060208301356001600160401b03811115610d4f57600080fd5b610d5b85828601610a94565b9150509250929050565b60005b83811015610d80578181015183820152602001610d68565b50506000910152565b60008151808452610da1816020860160208601610d65565b601f01601f19169290920160200192915050565b61010081526000610dca610100830189610d89565b9050610def602083018880516001600160401b03908116835260209182015116910152565b85516001600160401b03908116606084015260208701511660808301526001600160401b03851660a08301526001600160401b03841660c083015282151560e0830152979650505050505050565b600060208284031215610e4f57600080fd5b8135610ab481610a1a565b60208152600082516101006020840152610e78610120840182610d89565b90506020840151610ea2604085018280516001600160401b03908116835260209182015116910152565b50604084015180516001600160401b03908116608086015260208201511660a0850152506001600160401b0360608501511660c08401526001600160401b0360808501511660e084015260a084015115156101008401528091505092915050565b634e487b7160e01b600052601160045260246000fd5b6001600160401b038181168382160190811115610f3857610f38610f03565b92915050565b8082028115828204841417610f3857610f38610f03565b600181811c90821680610f6957607f821691505b602082108103610f8957634e487b7160e01b600052602260045260246000fd5b50919050565b6000808354818160011c90506001821680610fab57607f821691505b602082108103610fc957634e487b7160e01b84526022600452602484fd5b808015610fdd5760018114610ff257611022565b60ff1984168752821515830287019450611022565b60008881526020902060005b8481101561101a57815489820152600190910190602001610ffe565b505082870194505b50929695505050505050565b602081526001600160401b038251166020820152600060208301516060604084015261105d6080840182610d89565b90506040840151601f1984830301606085015261107a8282610d89565b95945050505050565b6000611091610a6484610a2f565b90508281528383830111156110a557600080fd5b610ab4836020830184610d65565b600082601f8301126110c457600080fd5b610ab483835160208501611083565b6000606082840312156110e557600080fd5b6110ed61095c565b905081516110fa81610a1a565b815260208201516001600160401b0381111561111557600080fd5b611121848285016110b3565b60208301525060408201516001600160401b0381111561114057600080fd5b610b34848285016110b3565b60006040828403121561115e57600080fd5b611166610984565b9050815161117381610a1a565b81526020820151610b7781610a1a565b600060a0828403121561119557600080fd5b61119d6109a6565b905081516001600160401b038111156111b557600080fd5b8201601f810184136111c657600080fd5b6111d584825160208401611083565b8252506111e5836020840161114c565b602082015260608201516111f881610a1a565b60408201526080820151610c0a81610a1a565b60006020828403121561121d57600080fd5b81516001600160401b0381111561123357600080fd5b820160e0818503121561124557600080fd5b61124d6109c8565b81516001600160401b0381111561126357600080fd5b61126f868285016110d3565b82525060208201516001600160401b0381111561128b57600080fd5b611297868285016110d3565b60208301525060408201516001600160401b038111156112b657600080fd5b6112c286828501611183565b6040830152506112d5856060840161114c565b6060820152610cf18560a0840161114c565b8381526060602082015260006113006060830185610d89565b82810360408401526113128185610d89565b969550505050505056fea2646970667358221220a2543a8570f202409f6685dd315a7419eb18e738dca65730b049f7676b080ae064736f6c634300081a0033","linkReferences":{}},"methodIdentifiers":{"ALLOWED_SP1_CLOCK_DRIFT()":"2c3ee474","clientState()":"bd3ce6b0","consensusStates(uint64)":"e08322d5","getClientState()":"ef913a4b","getConsensusState(uint64)":"edce8bdc","ics07UpdateClientProgramVkey()":"975c0796","validatePublicValues(((uint64,bytes,bytes),(uint64,bytes,bytes),(string,(uint64,uint64),uint64,uint64),(uint64,uint64),(uint64,uint64)))":"3f01b86f","verifier()":"2b7ac3f3","verifyIcs07UpdateClientProof(bytes,bytes)":"61d311c5"},"id":27}