{"abi":[{"type":"constructor","inputs":[{"name":"_ics07ProgramVkey","type":"bytes32","internalType":"bytes32"},{"name":"_verifier","type":"address","internalType":"address"},{"name":"_clientState","type":"bytes","internalType":"bytes"},{"name":"_consensusState","type":"bytes","internalType":"bytes"}],"stateMutability":"nonpayable"},{"type":"function","name":"ALLOWED_SP1_CLOCK_DRIFT","inputs":[],"outputs":[{"name":"","type":"uint64","internalType":"uint64"}],"stateMutability":"view"},{"type":"function","name":"clientState","inputs":[],"outputs":[{"name":"chain_id","type":"string","internalType":"string"},{"name":"trust_level","type":"tuple","internalType":"struct ICS07Tendermint.TrustThreshold","components":[{"name":"numerator","type":"uint64","internalType":"uint64"},{"name":"denominator","type":"uint64","internalType":"uint64"}]},{"name":"latest_height","type":"tuple","internalType":"struct ICS07Tendermint.Height","components":[{"name":"revision_number","type":"uint64","internalType":"uint64"},{"name":"revision_height","type":"uint64","internalType":"uint64"}]},{"name":"trusting_period","type":"uint64","internalType":"uint64"},{"name":"unbonding_period","type":"uint64","internalType":"uint64"},{"name":"is_frozen","type":"bool","internalType":"bool"}],"stateMutability":"view"},{"type":"function","name":"consensusStates","inputs":[{"name":"","type":"uint64","internalType":"uint64"}],"outputs":[{"name":"timestamp","type":"uint64","internalType":"uint64"},{"name":"root","type":"bytes","internalType":"bytes"},{"name":"next_validators_hash","type":"bytes","internalType":"bytes"}],"stateMutability":"view"},{"type":"function","name":"getClientState","inputs":[],"outputs":[{"name":"","type":"tuple","internalType":"struct ICS07Tendermint.ClientState","components":[{"name":"chain_id","type":"string","internalType":"string"},{"name":"trust_level","type":"tuple","internalType":"struct ICS07Tendermint.TrustThreshold","components":[{"name":"numerator","type":"uint64","internalType":"uint64"},{"name":"denominator","type":"uint64","internalType":"uint64"}]},{"name":"latest_height","type":"tuple","internalType":"struct ICS07Tendermint.Height","components":[{"name":"revision_number","type":"uint64","internalType":"uint64"},{"name":"revision_height","type":"uint64","internalType":"uint64"}]},{"name":"trusting_period","type":"uint64","internalType":"uint64"},{"name":"unbonding_period","type":"uint64","internalType":"uint64"},{"name":"is_frozen","type":"bool","internalType":"bool"}]}],"stateMutability":"view"},{"type":"function","name":"getConsensusState","inputs":[{"name":"revisionHeight","type":"uint64","internalType":"uint64"}],"outputs":[{"name":"","type":"tuple","internalType":"struct ICS07Tendermint.ConsensusState","components":[{"name":"timestamp","type":"uint64","internalType":"uint64"},{"name":"root","type":"bytes","internalType":"bytes"},{"name":"next_validators_hash","type":"bytes","internalType":"bytes"}]}],"stateMutability":"view"},{"type":"function","name":"ics07UpdateClientProgramVkey","inputs":[],"outputs":[{"name":"","type":"bytes32","internalType":"bytes32"}],"stateMutability":"view"},{"type":"function","name":"verifier","inputs":[],"outputs":[{"name":"","type":"address","internalType":"contract ISP1Verifier"}],"stateMutability":"view"},{"type":"function","name":"verifyIcs07UpdateClientProof","inputs":[{"name":"proof","type":"bytes","internalType":"bytes"},{"name":"publicValues","type":"bytes","internalType":"bytes"}],"outputs":[],"stateMutability":"nonpayable"}],"bytecode":{"object":"0x608060405234801561001057600080fd5b50604051611c8a380380611c8a83398101604081905261002f916102bd565b6000849055600180546001600160a01b0319166001600160a01b038516179055815161006490602090840181019084016103d9565b80516002908190610075908261053d565b506020828101518051600184018054928401516001600160401b039283166001600160801b031994851617680100000000000000009184168202179091556040860151805160028701805492870151918516928616929092179084168302179055606086015160039095018054608088015160a09098015196841694169390931795909116029390931760ff60801b1916600160801b9215159290920291909117909155815160009161012e91840181019084016105fb565b6004546801000000000000000090046001600160401b039081166000908152600660209081526040909120835181546001600160401b031916931692909217825582015191925082916001820190610186908261053d565b506040820151600282019061019b908261053d565b5090505050505050506106a6565b634e487b7160e01b600052604160045260246000fd5b60405160c081016001600160401b03811182821017156101e1576101e16101a9565b60405290565b604051606081016001600160401b03811182821017156101e1576101e16101a9565b6000806001600160401b03841115610223576102236101a9565b50604051601f19601f85018116603f011681018181106001600160401b0382111715610251576102516101a9565b60405283815290508082840185101561026957600080fd5b60200160005b8481101561028757838101518282015260200161026f565b50600084820152509392505050565b600082601f8301126102a757600080fd5b6102b683835160208501610209565b9392505050565b600080600080608085870312156102d357600080fd5b845160208601519094506001600160a01b03811681146102f257600080fd5b60408601519093506001600160401b0381111561030e57600080fd5b61031a87828801610296565b606087015190935090506001600160401b0381111561033857600080fd5b61034487828801610296565b91505092959194509250565b80516001600160401b038116811461036757600080fd5b919050565b60006040828403121561037e57600080fd5b604080519081016001600160401b03811182821017156103a0576103a06101a9565b6040529050806103af83610350565b81526103bd60208401610350565b60208201525092915050565b8051801515811461036757600080fd5b6000602082840312156103eb57600080fd5b81516001600160401b0381111561040157600080fd5b8201610100818503121561041457600080fd5b61041c6101bf565b81516001600160401b0381111561043257600080fd5b8201601f8101861361044357600080fd5b61045286825160208401610209565b825250610462856020840161036c565b6020820152610474856060840161036c565b604082015261048560a08301610350565b606082015261049660c08301610350565b60808201526104a760e083016103c9565b60a0820152949350505050565b600181811c908216806104c857607f821691505b6020821081036104e857634e487b7160e01b600052602260045260246000fd5b50919050565b601f82111561053857806000526020600020601f840160051c810160208510156105155750805b601f840160051c820191505b818110156105355760008155600101610521565b50505b505050565b81516001600160401b03811115610556576105566101a9565b61056a8161056484546104b4565b846104ee565b6020601f82116001811461059e57600083156105865750848201515b600019600385901b1c1916600184901b178455610535565b600084815260208120601f198516915b828110156105ce57878501518255602094850194600190920191016105ae565b50848210156105ec5786840151600019600387901b60f8161c191681555b50505050600190811b01905550565b60006020828403121561060d57600080fd5b81516001600160401b0381111561062357600080fd5b82016060818503121561063557600080fd5b61063d6101e7565b61064682610350565b815260208201516001600160401b0381111561066157600080fd5b61066d86828501610296565b60208301525060408201516001600160401b0381111561068c57600080fd5b61069886828501610296565b604083015250949350505050565b6115d5806106b56000396000f3fe608060405234801561001057600080fd5b50600436106100885760003560e01c8063bd3ce6b01161005b578063bd3ce6b01461010e578063e08322d514610128578063edce8bdc1461014a578063ef913a4b1461016a57600080fd5b80632b7ac3f31461008d5780632c3ee474146100bd57806361d311c5146100e2578063975c0796146100f7575b600080fd5b6001546100a0906001600160a01b031681565b6040516001600160a01b0390911681526020015b60405180910390f35b6100ca651b48eb57e00081565b6040516001600160401b0390911681526020016100b4565b6100f56100f0366004610d1a565b61017f565b005b61010060005481565b6040519081526020016100b4565b61011661068e565b6040516100b496959493929190610dd1565b61013b610136366004610e71565b610786565b6040516100b493929190610e95565b61015d610158366004610e71565b6108c3565b6040516100b49190610ed3565b610172610a4e565b6040516100b49190610f28565b60008180602001905181019061019591906111be565b600554909150600160801b900460ff16156102035760405162461bcd60e51b8152602060048201526024808201527f535031494353303754656e6465726d696e743a20636c69656e7420697320667260448201526337bd32b760e11b60648201526084015b60405180910390fd5b651b48eb57e00081604001516060015161021d91906112bd565b6001600160401b031661023442633b9aca006112e2565b11156102905760405162461bcd60e51b815260206004820152602560248201527f535031494353303754656e6465726d696e743a20696e76616c69642074696d6560448201526407374616d760dc1b60648201526084016101fa565b60405161029f90600290611333565b604051809103902081604001516000015180519060200120146103125760405162461bcd60e51b815260206004820152602560248201527f535031494353303754656e6465726d696e743a20636861696e204944206d69736044820152640dac2e8c6d60db1b60648201526084016101fa565b600354604082015160200151516001600160401b03908116911614801561035a5750600354604082015160209081015101516001600160401b03908116600160401b90920416145b6103bb5760405162461bcd60e51b815260206004820152602c60248201527f535031494353303754656e6465726d696e743a2074727573742074687265736860448201526b0ded8c840dad2e6dac2e8c6d60a31b60648201526084016101fa565b60055460408083015101516001600160401b039081169116146104355760405162461bcd60e51b815260206004820152602c60248201527f535031494353303754656e6465726d696e743a207472757374696e672070657260448201526b0d2dec840dad2e6dac2e8c6d60a31b60648201526084016101fa565b60055460408083015101516001600160401b03908116600160401b90920416146104b75760405162461bcd60e51b815260206004820152602d60248201527f535031494353303754656e6465726d696e743a20756e626f6e64696e6720706560448201526c0e4d2dec840dad2e6dac2e8c6d609b1b60648201526084016101fa565b80516040516104c99190602001610ed3565b60408051601f19818403018152828252805160209182012060608501518201516001600160401b031660009081526006835292909220919261050c92910161142b565b604051602081830303815290604052805190602001201461058c5760405162461bcd60e51b815260206004820152603460248201527f535031494353303754656e6465726d696e743a207472757374656420636f6e736044820152730cadce6eae640e6e8c2e8ca40dad2e6dac2e8c6d60631b60648201526084016101fa565b60015460005460405163020a49e360e51b81526001600160a01b03909216916341493c60916105c19186908890600401611479565b60006040518083038186803b1580156105d957600080fd5b505afa1580156105ed573d6000803e3d6000fd5b5050505060808101518051600480546020938401516001600160401b039384166fffffffffffffffffffffffffffffffff1990921691909117600160401b918416918202179091558284015160009182526006845260409091208151815467ffffffffffffffff1916931692909217825591820151600182019061067190826114e1565b506040820151600282019061068690826114e1565b505050505050565b60028054819061069d906112f9565b80601f01602080910402602001604051908101604052809291908181526020018280546106c9906112f9565b80156107165780601f106106eb57610100808354040283529160200191610716565b820191906000526020600020905b8154815290600101906020018083116106f957829003601f168201915b505060408051808201825260018701546001600160401b038082168352600160401b918290048116602080850191909152845180860190955260028a015480831686528390048216908501526003909801549697919692955082821694508204169150600160801b900460ff1686565b600660205260009081526040902080546001820180546001600160401b0390921692916107b2906112f9565b80601f01602080910402602001604051908101604052809291908181526020018280546107de906112f9565b801561082b5780601f106108005761010080835404028352916020019161082b565b820191906000526020600020905b81548152906001019060200180831161080e57829003601f168201915b505050505090806002018054610840906112f9565b80601f016020809104026020016040519081016040528092919081815260200182805461086c906112f9565b80156108b95780601f1061088e576101008083540402835291602001916108b9565b820191906000526020600020905b81548152906001019060200180831161089c57829003601f168201915b5050505050905083565b6108f0604051806060016040528060006001600160401b0316815260200160608152602001606081525090565b6001600160401b038083166000908152600660209081526040918290208251606081019093528054909316825260018301805492939291840191610933906112f9565b80601f016020809104026020016040519081016040528092919081815260200182805461095f906112f9565b80156109ac5780601f10610981576101008083540402835291602001916109ac565b820191906000526020600020905b81548152906001019060200180831161098f57829003601f168201915b505050505081526020016002820180546109c5906112f9565b80601f01602080910402602001604051908101604052809291908181526020018280546109f1906112f9565b8015610a3e5780601f10610a1357610100808354040283529160200191610a3e565b820191906000526020600020905b815481529060010190602001808311610a2157829003601f168201915b5050505050815250509050919050565b610a56610b7d565b60026040518060c0016040529081600082018054610a73906112f9565b80601f0160208091040260200160405190810160405280929190818152602001828054610a9f906112f9565b8015610aec5780601f10610ac157610100808354040283529160200191610aec565b820191906000526020600020905b815481529060010190602001808311610acf57829003601f168201915b505050918352505060408051808201825260018401546001600160401b038082168352600160401b918290048116602080850191909152808601939093528351808501855260028701548083168252839004821693810193909352928401919091526003909301548082166060840152928304166080820152600160801b90910460ff16151560a090910152919050565b6040518060c0016040528060608152602001610bbe604051806040016040528060006001600160401b0316815260200160006001600160401b031681525090565b8152602001610bf2604051806040016040528060006001600160401b0316815260200160006001600160401b031681525090565b81526000602082018190526040820181905260609091015290565b634e487b7160e01b600052604160045260246000fd5b604051608081016001600160401b0381118282101715610c4557610c45610c0d565b60405290565b60405160a081016001600160401b0381118282101715610c4557610c45610c0d565b604051601f8201601f191681016001600160401b0381118282101715610c9557610c95610c0d565b604052919050565b60006001600160401b03821115610cb657610cb6610c0d565b50601f01601f191660200190565b600082601f830112610cd557600080fd5b8135610ce8610ce382610c9d565b610c6d565b818152846020838601011115610cfd57600080fd5b816020850160208301376000918101602001919091529392505050565b60008060408385031215610d2d57600080fd5b82356001600160401b03811115610d4357600080fd5b610d4f85828601610cc4565b92505060208301356001600160401b03811115610d6b57600080fd5b610d7785828601610cc4565b9150509250929050565b60005b83811015610d9c578181015183820152602001610d84565b50506000910152565b60008151808452610dbd816020860160208601610d81565b601f01601f19169290920160200192915050565b61010081526000610de6610100830189610da5565b9050610e0b602083018880516001600160401b03908116835260209182015116910152565b85516001600160401b03908116606084015260208701511660808301526001600160401b03851660a08301526001600160401b03841660c083015282151560e0830152979650505050505050565b6001600160401b0381168114610e6e57600080fd5b50565b600060208284031215610e8357600080fd5b8135610e8e81610e59565b9392505050565b6001600160401b0384168152606060208201526000610eb76060830185610da5565b8281036040840152610ec98185610da5565b9695505050505050565b602081526001600160401b0382511660208201526000602083015160606040840152610f026080840182610da5565b90506040840151601f19848303016060850152610f1f8282610da5565b95945050505050565b60208152600082516101006020840152610f46610120840182610da5565b90506020840151610f70604085018280516001600160401b03908116835260209182015116910152565b50604084015180516001600160401b03908116608086015260208201511660a0850152506001600160401b0360608501511660c08401526001600160401b0360808501511660e084015260a084015115156101008401528091505092915050565b6000610fdf610ce384610c9d565b9050828152838383011115610ff357600080fd5b610e8e836020830184610d81565b600082601f83011261101257600080fd5b610e8e83835160208501610fd1565b60006060828403121561103357600080fd5b604051606081016001600160401b038111828210171561105557611055610c0d565b8060405250809150825161106881610e59565b815260208301516001600160401b0381111561108357600080fd5b61108f85828601611001565b60208301525060408301516001600160401b038111156110ae57600080fd5b6110ba85828601611001565b6040830152505092915050565b6000604082840312156110d957600080fd5b604080519081016001600160401b03811182821017156110fb576110fb610c0d565b8060405250809150825161110e81610e59565b8152602083015161111e81610e59565b6020919091015292915050565b600060a0828403121561113d57600080fd5b611145610c23565b905081516001600160401b0381111561115d57600080fd5b8201601f8101841361116e57600080fd5b61117d84825160208401610fd1565b82525061118d83602084016110c7565b602082015260608201516111a081610e59565b604082015260808201516111b381610e59565b606082015292915050565b6000602082840312156111d057600080fd5b81516001600160401b038111156111e657600080fd5b820160e081850312156111f857600080fd5b611200610c4b565b81516001600160401b0381111561121657600080fd5b61122286828501611021565b82525060208201516001600160401b0381111561123e57600080fd5b61124a86828501611021565b60208301525060408201516001600160401b0381111561126957600080fd5b6112758682850161112b565b60408301525061128885606084016110c7565b606082015261129a8560a084016110c7565b6080820152949350505050565b634e487b7160e01b600052601160045260246000fd5b6001600160401b0381811683821601908111156112dc576112dc6112a7565b92915050565b80820281158282048414176112dc576112dc6112a7565b600181811c9082168061130d57607f821691505b60208210810361132d57634e487b7160e01b600052602260045260246000fd5b50919050565b6000808354611341816112f9565b600182168015611358576001811461136d5761139d565b60ff198316865281151582028601935061139d565b86600052602060002060005b8381101561139557815488820152600190910190602001611379565b505081860193505b509195945050505050565b600081546113b5816112f9565b8085526001821680156113cf57600181146113eb57611422565b60ff1983166020870152602082151560051b8701019350611422565b84600052602060002060005b838110156114195781546020828a0101526001820191506020810190506113f7565b87016020019450505b50505092915050565b602081526001600160401b03825416602082015260606040820152600061145860808301600185016113a8565b828103601f1901606084015261147181600286016113a8565b949350505050565b838152606060208201526000610eb76060830185610da5565b601f8211156114dc57806000526020600020601f840160051c810160208510156114b95750805b601f840160051c820191505b818110156114d957600081556001016114c5565b50505b505050565b81516001600160401b038111156114fa576114fa610c0d565b61150e8161150884546112f9565b84611492565b6020601f821160018114611542576000831561152a5750848201515b600019600385901b1c1916600184901b1784556114d9565b600084815260208120601f198516915b828110156115725787850151825560209485019460019092019101611552565b50848210156115905786840151600019600387901b60f8161c191681555b50505050600190811b0190555056fea26469706673582212207d3f6bda52aed20ecd0c5b1ff86d346448e8eb1c82e45d9cfa1f93276a0825ba64736f6c634300081a0033","linkReferences":{}},"methodIdentifiers":{"ALLOWED_SP1_CLOCK_DRIFT()":"2c3ee474","clientState()":"bd3ce6b0","consensusStates(uint64)":"e08322d5","getClientState()":"ef913a4b","getConsensusState(uint64)":"edce8bdc","ics07UpdateClientProgramVkey()":"975c0796","verifier()":"2b7ac3f3","verifyIcs07UpdateClientProof(bytes,bytes)":"61d311c5"},"id":29}