{"abi":[{"type":"constructor","inputs":[{"name":"_ics07UpdateClientProgramVkey","type":"bytes32","internalType":"bytes32"},{"name":"_ics07VerifyMembershipProgramVkey","type":"bytes32","internalType":"bytes32"},{"name":"_verifier","type":"address","internalType":"address"},{"name":"_clientState","type":"bytes","internalType":"bytes"},{"name":"_consensusState","type":"bytes32","internalType":"bytes32"}],"stateMutability":"nonpayable"},{"type":"function","name":"ALLOWED_SP1_CLOCK_DRIFT","inputs":[],"outputs":[{"name":"","type":"uint64","internalType":"uint64"}],"stateMutability":"view"},{"type":"function","name":"clientState","inputs":[],"outputs":[{"name":"chain_id","type":"string","internalType":"string"},{"name":"trust_level","type":"tuple","internalType":"struct ICS07Tendermint.TrustThreshold","components":[{"name":"numerator","type":"uint8","internalType":"uint8"},{"name":"denominator","type":"uint8","internalType":"uint8"}]},{"name":"latest_height","type":"tuple","internalType":"struct ICS07Tendermint.Height","components":[{"name":"revision_number","type":"uint32","internalType":"uint32"},{"name":"revision_height","type":"uint32","internalType":"uint32"}]},{"name":"trusting_period","type":"uint64","internalType":"uint64"},{"name":"unbonding_period","type":"uint64","internalType":"uint64"},{"name":"is_frozen","type":"bool","internalType":"bool"}],"stateMutability":"view"},{"type":"function","name":"consensusStateHashes","inputs":[{"name":"","type":"uint32","internalType":"uint32"}],"outputs":[{"name":"","type":"bytes32","internalType":"bytes32"}],"stateMutability":"view"},{"type":"function","name":"getClientState","inputs":[],"outputs":[{"name":"","type":"tuple","internalType":"struct ICS07Tendermint.ClientState","components":[{"name":"chain_id","type":"string","internalType":"string"},{"name":"trust_level","type":"tuple","internalType":"struct ICS07Tendermint.TrustThreshold","components":[{"name":"numerator","type":"uint8","internalType":"uint8"},{"name":"denominator","type":"uint8","internalType":"uint8"}]},{"name":"latest_height","type":"tuple","internalType":"struct ICS07Tendermint.Height","components":[{"name":"revision_number","type":"uint32","internalType":"uint32"},{"name":"revision_height","type":"uint32","internalType":"uint32"}]},{"name":"trusting_period","type":"uint64","internalType":"uint64"},{"name":"unbonding_period","type":"uint64","internalType":"uint64"},{"name":"is_frozen","type":"bool","internalType":"bool"}]}],"stateMutability":"view"},{"type":"function","name":"getConsensusState","inputs":[{"name":"revisionHeight","type":"uint32","internalType":"uint32"}],"outputs":[{"name":"","type":"bytes32","internalType":"bytes32"}],"stateMutability":"view"},{"type":"function","name":"ics07UpdateClientProgramVkey","inputs":[],"outputs":[{"name":"","type":"bytes32","internalType":"bytes32"}],"stateMutability":"view"},{"type":"function","name":"ics07VerifyMembershipProgramVkey","inputs":[],"outputs":[{"name":"","type":"bytes32","internalType":"bytes32"}],"stateMutability":"view"},{"type":"function","name":"validateUpdateClientPublicValues","inputs":[{"name":"output","type":"tuple","internalType":"struct SP1ICS07Tendermint.SP1ICS07UpdateClientOutput","components":[{"name":"trusted_consensus_state","type":"tuple","internalType":"struct ICS07Tendermint.ConsensusState","components":[{"name":"timestamp","type":"uint64","internalType":"uint64"},{"name":"root","type":"bytes","internalType":"bytes"},{"name":"next_validators_hash","type":"bytes","internalType":"bytes"}]},{"name":"new_consensus_state","type":"tuple","internalType":"struct ICS07Tendermint.ConsensusState","components":[{"name":"timestamp","type":"uint64","internalType":"uint64"},{"name":"root","type":"bytes","internalType":"bytes"},{"name":"next_validators_hash","type":"bytes","internalType":"bytes"}]},{"name":"env","type":"tuple","internalType":"struct SP1ICS07Tendermint.Env","components":[{"name":"chain_id","type":"string","internalType":"string"},{"name":"trust_threshold","type":"tuple","internalType":"struct ICS07Tendermint.TrustThreshold","components":[{"name":"numerator","type":"uint8","internalType":"uint8"},{"name":"denominator","type":"uint8","internalType":"uint8"}]},{"name":"trusting_period","type":"uint64","internalType":"uint64"},{"name":"now","type":"uint64","internalType":"uint64"}]},{"name":"trusted_height","type":"tuple","internalType":"struct ICS07Tendermint.Height","components":[{"name":"revision_number","type":"uint32","internalType":"uint32"},{"name":"revision_height","type":"uint32","internalType":"uint32"}]},{"name":"new_height","type":"tuple","internalType":"struct ICS07Tendermint.Height","components":[{"name":"revision_number","type":"uint32","internalType":"uint32"},{"name":"revision_height","type":"uint32","internalType":"uint32"}]}]}],"outputs":[],"stateMutability":"view"},{"type":"function","name":"verifier","inputs":[],"outputs":[{"name":"","type":"address","internalType":"contract ISP1Verifier"}],"stateMutability":"view"},{"type":"function","name":"verifyIcs07UpdateClientProof","inputs":[{"name":"proof","type":"bytes","internalType":"bytes"},{"name":"publicValues","type":"bytes","internalType":"bytes"}],"outputs":[],"stateMutability":"nonpayable"}],"bytecode":{"object":"0x60c060405234801561001057600080fd5b50604051611a1a380380611a1a83398101604081905261002f9161024c565b608085905260a0849052600080546001600160a01b0319166001600160a01b0385161790558151610069906020908401810190840161039e565b8051600190819061007a9082610502565b5060208281015180516001840180549284015160ff9081166101000261ffff1990941692169190911791909117905560408084015180516002850180549285015163ffffffff9081166401000000009081026001600160401b031990951693821693909317939093179055606086015160039586018054608089015160a0909901511515600160801b0260ff60801b196001600160401b039a8b1668010000000000000000026001600160801b03199093169a90941699909917179190911696909617909555925493909304909116600090815260059091522055506105c092505050565b634e487b7160e01b600052604160045260246000fd5b604080519081016001600160401b03811182821017156101975761019761015f565b60405290565b60405160c081016001600160401b03811182821017156101975761019761015f565b6000806001600160401b038411156101d9576101d961015f565b50604051601f19601f85018116603f011681018181106001600160401b03821117156102075761020761015f565b60405283815290508082840185101561021f57600080fd5b60200160005b8481101561023d578381015182820152602001610225565b50600084820152509392505050565b600080600080600060a0868803121561026457600080fd5b85516020870151604088015191965094506001600160a01b038116811461028a57600080fd5b60608701519093506001600160401b038111156102a657600080fd5b8601601f810188136102b757600080fd5b6102c6888251602084016101bf565b6080979097015195989497509295949392505050565b805160ff811681146102ed57600080fd5b919050565b60006040828403121561030457600080fd5b61030c610175565b9050610317826102dc565b8152610325602083016102dc565b602082015292915050565b805163ffffffff811681146102ed57600080fd5b60006040828403121561035657600080fd5b61035e610175565b905061036982610330565b815261032560208301610330565b80516001600160401b03811681146102ed57600080fd5b805180151581146102ed57600080fd5b6000602082840312156103b057600080fd5b81516001600160401b038111156103c657600080fd5b820161010081850312156103d957600080fd5b6103e161019d565b81516001600160401b038111156103f757600080fd5b8201601f8101861361040857600080fd5b610417868251602084016101bf565b82525061042785602084016102f2565b60208201526104398560608401610344565b604082015261044a60a08301610377565b606082015261045b60c08301610377565b608082015261046c60e0830161038e565b60a0820152949350505050565b600181811c9082168061048d57607f821691505b6020821081036104ad57634e487b7160e01b600052602260045260246000fd5b50919050565b601f8211156104fd57806000526020600020601f840160051c810160208510156104da5750805b601f840160051c820191505b818110156104fa57600081556001016104e6565b50505b505050565b81516001600160401b0381111561051b5761051b61015f565b61052f816105298454610479565b846104b3565b6020601f821160018114610563576000831561054b5750848201515b600019600385901b1c1916600184901b1784556104fa565b600084815260208120601f198516915b828110156105935787850151825560209485019460019092019101610573565b50848210156105b15786840151600019600387901b60f8161c191681555b50505050600190811b01905550565b60805160a05161142e6105ec6000396000610194015260008181610140015261023a015261142e6000f3fe608060405234801561001057600080fd5b506004361061009e5760003560e01c8063b69c6c0711610066578063b69c6c0714610162578063bd3ce6b014610175578063c77eb6c21461018f578063ee3d9e5e146101b6578063ef913a4b146101dc57600080fd5b80632b7ac3f3146100a35780632c3ee474146100d357806361d311c5146100f85780637733c36c1461010d578063975c07961461013b575b600080fd5b6000546100b6906001600160a01b031681565b6040516001600160a01b0390911681526020015b60405180910390f35b6100e06502ba7def300081565b6040516001600160401b0390911681526020016100ca565b61010b610106366004610af8565b6101f1565b005b61012d61011b366004610b71565b60056020526000908152604090205481565b6040519081526020016100ca565b61012d7f000000000000000000000000000000000000000000000000000000000000000081565b61010b610170366004610d4c565b61031a565b61017d6106dd565b6040516100ca96959493929190610e85565b61012d7f000000000000000000000000000000000000000000000000000000000000000081565b61012d6101c4366004610b71565b63ffffffff1660009081526005602052604090205490565b6101e46107e2565b6040516100ca9190610f04565b6000818060200190518101906102079190611167565b90506102128161031a565b60005460405163020a49e360e51b81526001600160a01b03909116906341493c6090610266907f00000000000000000000000000000000000000000000000000000000000000009086908890600401611243565b60006040518083038186803b15801561027e57600080fd5b505afa158015610292573d6000803e3d6000fd5b505050608082015180516003805460209384015163ffffffff9081166401000000000267ffffffffffffffff19909216931692909217919091179055808301516040516102e29350909101611278565b60408051601f19818403018152918152815160209283012060809093015182015163ffffffff16600090815260059092529020555050565b600454600160801b900460ff16156103855760405162461bcd60e51b8152602060048201526024808201527f535031494353303754656e6465726d696e743a20636c69656e7420697320667260448201526337bd32b760e11b60648201526084015b60405180910390fd5b6502ba7def300081604001516060015161039f91906112e3565b6001600160401b03166103b642633b9aca00611308565b11156104125760405162461bcd60e51b815260206004820152602560248201527f535031494353303754656e6465726d696e743a20696e76616c69642074696d6560448201526407374616d760dc1b606482015260840161037c565b60405161042190600190611359565b604051809103902081604001516000015180519060200120146104945760405162461bcd60e51b815260206004820152602560248201527f535031494353303754656e6465726d696e743a20636861696e204944206d69736044820152640dac2e8c6d60db1b606482015260840161037c565b6002546040820151602001515160ff90811691161480156104ce57506002546040820151602090810151015160ff90811661010090920416145b61052f5760405162461bcd60e51b815260206004820152602c60248201527f535031494353303754656e6465726d696e743a2074727573742074687265736860448201526b0ded8c840dad2e6dac2e8c6d60a31b606482015260840161037c565b60045460408083015101516001600160401b039081169116146105a95760405162461bcd60e51b815260206004820152602c60248201527f535031494353303754656e6465726d696e743a207472757374696e672070657260448201526b0d2dec840dad2e6dac2e8c6d60a31b606482015260840161037c565b60045460408083015101516001600160401b03908116600160401b909204161461062b5760405162461bcd60e51b815260206004820152602d60248201527f535031494353303754656e6465726d696e743a20756e626f6e64696e6720706560448201526c0e4d2dec840dad2e6dac2e8c6d609b1b606482015260840161037c565b805160405161063d9190602001611278565b60408051601f198184030181529181528151602092830120606084015183015163ffffffff1660009081526005909352912054146106da5760405162461bcd60e51b815260206004820152603460248201527f535031494353303754656e6465726d696e743a207472757374656420636f6e736044820152730cadce6eae640e6e8c2e8ca40dad2e6dac2e8c6d60631b606482015260840161037c565b50565b6001805481906106ec9061131f565b80601f01602080910402602001604051908101604052809291908181526020018280546107189061131f565b80156107655780601f1061073a57610100808354040283529160200191610765565b820191906000526020600020905b81548152906001019060200180831161074857829003601f168201915b5050604080518082018252600187015460ff808216835261010090910481166020808401919091528351808501909452600289015463ffffffff80821686526401000000009091041690840152600390970154959690959194506001600160401b038083169450600160401b8304169250600160801b9091041686565b6107ea61091a565b60016040518060c00160405290816000820180546108079061131f565b80601f01602080910402602001604051908101604052809291908181526020018280546108339061131f565b80156108805780601f1061085557610100808354040283529160200191610880565b820191906000526020600020905b81548152906001019060200180831161086357829003601f168201915b5050509183525050604080518082018252600184015460ff808216835261010090910481166020838101919091528085019290925282518084018452600286015463ffffffff80821683526401000000009091041692810192909252918301526003909201546001600160401b038082166060840152600160401b8204166080830152600160801b9004909116151560a090910152919050565b6040518060c001604052806060815260200161094f6040518060400160405280600060ff168152602001600060ff1681525090565b815260200161097d6040518060400160405280600063ffffffff168152602001600063ffffffff1681525090565b81526000602082018190526040820181905260609091015290565b634e487b7160e01b600052604160045260246000fd5b604051606081016001600160401b03811182821017156109d0576109d0610998565b60405290565b604051608081016001600160401b03811182821017156109d0576109d0610998565b604080519081016001600160401b03811182821017156109d0576109d0610998565b60405160a081016001600160401b03811182821017156109d0576109d0610998565b604051601f8201601f191681016001600160401b0381118282101715610a6457610a64610998565b604052919050565b60006001600160401b03821115610a8557610a85610998565b50601f01601f191660200190565b6000610aa6610aa184610a6c565b610a3c565b9050828152838383011115610aba57600080fd5b828260208301376000602084830101529392505050565b600082601f830112610ae257600080fd5b610af183833560208501610a93565b9392505050565b60008060408385031215610b0b57600080fd5b82356001600160401b03811115610b2157600080fd5b610b2d85828601610ad1565b92505060208301356001600160401b03811115610b4957600080fd5b610b5585828601610ad1565b9150509250929050565b63ffffffff811681146106da57600080fd5b600060208284031215610b8357600080fd5b8135610af181610b5f565b6001600160401b03811681146106da57600080fd5b8035610bae81610b8e565b919050565b600060608284031215610bc557600080fd5b610bcd6109ae565b90508135610bda81610b8e565b815260208201356001600160401b03811115610bf557600080fd5b610c0184828501610ad1565b60208301525060408201356001600160401b03811115610c2057600080fd5b610c2c84828501610ad1565b60408301525092915050565b60ff811681146106da57600080fd5b600081830360a0811215610c5a57600080fd5b610c626109d6565b915082356001600160401b03811115610c7a57600080fd5b8301601f81018513610c8b57600080fd5b610c9a85823560208401610a93565b8352506040601f1982011215610caf57600080fd5b50610cb86109f8565b6020830135610cc681610c38565b81526040830135610cd681610c38565b602082810191909152820152610cee60608301610ba3565b6040820152610cff60808301610ba3565b606082015292915050565b600060408284031215610d1c57600080fd5b610d246109f8565b90508135610d3181610b5f565b81526020820135610d4181610b5f565b602082015292915050565b600060208284031215610d5e57600080fd5b81356001600160401b03811115610d7457600080fd5b820160e08185031215610d8657600080fd5b610d8e610a1a565b81356001600160401b03811115610da457600080fd5b610db086828501610bb3565b82525060208201356001600160401b03811115610dcc57600080fd5b610dd886828501610bb3565b60208301525060408201356001600160401b03811115610df757600080fd5b610e0386828501610c47565b604083015250610e168560608401610d0a565b6060820152610e288560a08401610d0a565b6080820152949350505050565b60005b83811015610e50578181015183820152602001610e38565b50506000910152565b60008151808452610e71816020860160208601610e35565b601f01601f19169290920160200192915050565b61010081526000610e9a610100830189610e59565b9050610eb96020830188805160ff908116835260209182015116910152565b855163ffffffff908116606084015260208701511660808301526001600160401b03851660a08301526001600160401b03841660c083015282151560e0830152979650505050505050565b60208152600082516101006020840152610f22610120840182610e59565b90506020840151610f466040850182805160ff908116835260209182015116910152565b506040840151805163ffffffff908116608086015260208201511660a0850152506001600160401b0360608501511660c08401526001600160401b0360808501511660e084015260a084015115156101008401528091505092915050565b8051610bae81610b8e565b6000610fbd610aa184610a6c565b9050828152838383011115610fd157600080fd5b610af1836020830184610e35565b600082601f830112610ff057600080fd5b610af183835160208501610faf565b60006060828403121561101157600080fd5b6110196109ae565b9050815161102681610b8e565b815260208201516001600160401b0381111561104157600080fd5b61104d84828501610fdf565b60208301525060408201516001600160401b0381111561106c57600080fd5b610c2c84828501610fdf565b600081830360a081121561108b57600080fd5b6110936109d6565b915082516001600160401b038111156110ab57600080fd5b8301601f810185136110bc57600080fd5b6110cb85825160208401610faf565b8352506040601f19820112156110e057600080fd5b506110e96109f8565b60208301516110f781610c38565b8152604083015161110781610c38565b60208281019190915282015261111f60608301610fa4565b6040820152610cff60808301610fa4565b60006040828403121561114257600080fd5b61114a6109f8565b9050815161115781610b5f565b81526020820151610d4181610b5f565b60006020828403121561117957600080fd5b81516001600160401b0381111561118f57600080fd5b820160e081850312156111a157600080fd5b6111a9610a1a565b81516001600160401b038111156111bf57600080fd5b6111cb86828501610fff565b82525060208201516001600160401b038111156111e757600080fd5b6111f386828501610fff565b60208301525060408201516001600160401b0381111561121257600080fd5b61121e86828501611078565b6040830152506112318560608401611130565b6060820152610e288560a08401611130565b83815260606020820152600061125c6060830185610e59565b828103604084015261126e8185610e59565b9695505050505050565b602081526001600160401b03825116602082015260006020830151606060408401526112a76080840182610e59565b90506040840151601f198483030160608501526112c48282610e59565b95945050505050565b634e487b7160e01b600052601160045260246000fd5b6001600160401b038181168382160190811115611302576113026112cd565b92915050565b8082028115828204841417611302576113026112cd565b600181811c9082168061133357607f821691505b60208210810361135357634e487b7160e01b600052602260045260246000fd5b50919050565b6000808354818160011c9050600182168061137557607f821691505b60208210810361139357634e487b7160e01b84526022600452602484fd5b8080156113a757600181146113bc576113ec565b60ff19841687528215158302870194506113ec565b60008881526020902060005b848110156113e4578154898201526001909101906020016113c8565b505082870194505b5092969550505050505056fea2646970667358221220894a979a48ec05857468b464824e3fa46d68f40cf7c544f47294e1e5e0b7008864736f6c634300081a0033","linkReferences":{}},"methodIdentifiers":{"ALLOWED_SP1_CLOCK_DRIFT()":"2c3ee474","clientState()":"bd3ce6b0","consensusStateHashes(uint32)":"7733c36c","getClientState()":"ef913a4b","getConsensusState(uint32)":"ee3d9e5e","ics07UpdateClientProgramVkey()":"975c0796","ics07VerifyMembershipProgramVkey()":"c77eb6c2","validateUpdateClientPublicValues(((uint64,bytes,bytes),(uint64,bytes,bytes),(string,(uint8,uint8),uint64,uint64),(uint32,uint32),(uint32,uint32)))":"b69c6c07","verifier()":"2b7ac3f3","verifyIcs07UpdateClientProof(bytes,bytes)":"61d311c5"},"id":29}